:020000040800F2
:100000008062002065040008D1040008E1040008B3
:10001000ED040008FD0400080D05000800000000C4
:10002000000000000000000000000000470400087D
:100030001D0500080000000035040008AF0100089D
:10004000AF010008AF010008AF010008AF010008D0
:10005000AF010008AF010008D51B0008D51B000840
:10006000D51B0008D51B0008D51B0008AF010008F0
:10007000AF010008AF010008AF010008AF010008A0
:10008000AF010008AF010008AF010008AF01000890
:10009000AF010008AF010008AF010008D51B000840
:1000A000AF010008AF010008AF010008AF01000870
:1000B00071190008AF01000881190008AF0100089C
:1000C000AF010008AF010008AF010008AF01000850
:1000D000AF0100089D1A0008AF010008AF01000839
:1000E000D51B0008AF010008AF010008AF010008F0
:1000F000AF010008AF010008AF010008AF01000820
:10010000AF010008AF010008AF010008AF0100080F
:10011000AF010008AF010008AF010008AF010008FF
:10012000AF010008AF010008AF010008AF010008EF
:1001300000F012BA70B50E46054600F006F9094BFC
:10014000094A1C68A119914202D8084A914204D276
:100150000C232B604FF0FF3400E0196000F0FDF835
:10016000204670BD000000200000012080620020B9
:100170001046194600F004BA1046194600F012BAAB
:10018000132303604FF0FF307047132303604FF0D9
:10019000FF307047132303604FF0FF307047022990
:1001A0004FF0000303608CBF00200120704700F077
:1001B000BDB908B900F0D8B84FF0FF307047000063
:1001C000114B70B500251D60104B114E1868346836
:1001D00000F090F80F4B53F82030A3F10C0294423A
:1001E0000FD024B1A188062904BF0721A1800621D0
:1001F00023F8081C33F8061C074B326019800120D5
:1002000070BD284670BD00BF8C000020600100203A
:10021000180100201C01002014010020052970B5E0
:10022000838804460D4611D9052B25D8134B008928
:1002300004F10C0103EB800000F064F82289012135
:1002400091400F4B1A680A431A6015E0052B13D929
:100250000A4E008904F10C0106EB800000F067F8FB
:10026000228956F822303BB9012101FA02F2044BEF
:10027000196821EA02011960A58070BD1C010020E7
:100280006001002008B50A4B1B681A899B88052B62
:1002900001D982420AD900F063F818B1054B012256
:1002A0001A6008BDBDE8084000F0BCB808BD00BF3A
:1002B000180100208C00002008B500F046F8094B1A
:1002C00000241A88084B12B243F82240074B084D0D
:1002D0001A682868013A21461A60FFF79FFF2C60D0
:1002E00000F09AF814010020900000205C0100202A
:1002F000180100200023C20702D440080133FAE7A6
:1003000018467047036873B10B6003685B684B6005
:1003100003685B6819600368596002685368934218
:1003200004D15960704701600960496070470B68EB
:100330008B4207D04A6813600B685A60026891428A
:1003400002D100E0002303607047EFF3108072B623
:10035000704762B6EFF31080704780F310887047E3
:10036000EFF30580C0B2704707B501460B4807F0B0
:10037000D3FE0B4B0193019B5A1E0192002BFAD125
:10038000BFF34F8F074A084BD16801F4E0610B437C
:10039000D360BFF34F8F00BFFDE700BF6E8E000834
:1003A000A086010000ED00E00400FA05134423F0EC
:1003B000030310B54FF077321C1F43F8042C62077B
:1003C00005D54FF08832A3F1080443F8082C4FF00C
:1003D000807304E909000F4B224644F80C3C0023CB
:1003E00044F8103C032344F8143C022344F8183C1E
:1003F000012344F81C3C42F8201D0B2342F8043D25
:10040000013B032BFAD120466FF0020340F8443D34
:1004100010BD00BFB9020008FFF79BFF01DFFFF727
:10042000FEBF0000024B5A6842F080525A6070478B
:1004300000ED00E0EFF3098020E9F00F40F804ED53
:10044000064909680860FFF7BBFE044800680168B8
:1004500001C9B1E8F00F81F30988004718010020B5
:100460007047704708B5FFF7FBFF6A46114B934290
:1004700003D2114943F8041BF9E700230F4A10493E
:100480009818884204D20F49595899500433F5E717
:100490000D4B0E4A934203D2002243F8042BF8E797
:1004A000FFF7DFFF00F08CF807F0F0FDBDE8084033
:1004B00000F0BEB880600020FEE7FEE700000020EC
:1004C0008C000020C49000088C0000208060002078
:1004D00008B50420014900F031F900BF8A8E0008F8
:1004E0000520014900F02AF9968E000808B506207B
:1004F000014900F023F900BFA98E000808B50720C4
:10050000014900F01BF900BFBC8E000808B50820A7
:10051000014900F013F900BFCE8E000808B509208C
:10052000014900F00BF900BFE28E000808B50A206F
:10053000014900F003F900BFF48E000808B5044833
:1005400001F07FFBBDE80840024800F0D7B800BFCB
:1005500004000020A401002007B5064800F0A2F81E
:10056000002000900449054A034601F063FA03B0F5
:100570005DF804FBA401002020A107003D05000850
:1005800038B505460C4605482946224601F044FB8D
:1005900018B9034800F086F8F5E738BD04000020DC
:1005A000A401002070B504460D464618B44205D09B
:1005B00014F8011B002001F063FAF7E7284670BD2C
:1005C00008B500F089F90C4B4FF440119A6942F0DC
:1005D00008029A61094A11609A69094942F01002B9
:1005E0009A614FF440724A60996941F02001996123
:1005F000A3F57C431A6008BD00100240000C0140C6
:100600000010014008B501F075FB034807F084FDB8
:1006100000F01CFA002008BD028F000808B5034B4B
:1006200001201B6800F0B6F9F9E700BFAC18002004
:100630001FB5FFF78AFE0E4B002400930D4B01946B
:100640001B684FF4807102930F220C230A4800F0BC
:10065000C3F80A4B4FF4B0518DE81800084B07223D
:100660001B68084802930C2300F0B6F8FFF7D4FE8D
:100670001D06000814000020AC010020050600083B
:1006800018000020AC02002010B50446216839B9DA
:100690002046012200F010F90028F7D0012010BDFB
:1006A000002010BDF0B585B00546FFF7EDFF00BB9B
:1006B000FFF74BFE04462846FFF7E6FF064618B153
:1006C0002046FFF74AFE14E00B4F02213868FFF77F
:1006D000A5FD3B6804A91A8941F80C6D92B2281D4A
:1006E0000292039300F04EF82046FFF736FEFFF724
:1006F00099FE05B0F0BD00BF1801002038B50446D2
:10070000FFF723FE236805462BB1201D00F034F8C7
:1007100028B920602846BDE83840FFF71EBE84682F
:1007200007212046FFF77AFD24892846FFF715FEAA
:100730002046BDE83840FFF7A5BD000008B50B4BCB
:100740000C461A6852B9012209481A6007F05CFD8C
:10075000204607F059FD074807F056FDFFF7F5FD65
:1007600000F0B9F80020FFF724FD00BFB01800200A
:10077000658F00087B8F000803680BB11A68026060
:100780001846704710B5036843B15C684A689442E4
:1007900002D90B60016010BD1846F4E701600B60E0
:1007A00010BD000008B5FFF7D0FD094B1B689A8803
:1007B000052A06D91A89074B53F82210096843F80D
:1007C0002210FFF7CAFDBDE80840FFF72BBE00BFAF
:1007D000180100201C0100200F2A2DE9F74F0646C2
:1007E0000C4692469B4619D810F0030303D0C3F180
:1007F00004031E44CC1AFFF7A8FD012780462C4BAA
:100800001FFA87F953F8275075B10137212FF6D118
:100810004046FFF7A2FD4FF6757001E04FF6EA7013
:1008200000B203B0BDE8F08FA4F12C0C2CF0030C47
:1008300006EB0C0443F8274032466346A4F80690C2
:100840000C980D99CDF804C0FFF7B0FDDDF804C099
:100850004FF0FF3346F80C006362164B1BF0010F9C
:100860001A68A4F808A002F10102A580E5602561DC
:100870006561A561E5612562A5621A6004D0204624
:100880000121FFF7CBFC0DE020460721FFF7C6FC56
:100890001BF0040F06D14046FFF75FFD5046FFF7FF
:1008A000F1FC02E04046FFF758FD4846B8E700BFBC
:1008B000900000205C01002050E8003F8B4203D0F4
:1008C000BFF32F8F0020704740E80023D3F10100D1
:1008D00038BF00207047704708B501F0DFFB2A4B96
:1008E0001A6842F001021A605968284A0A405A60A0
:1008F0001A6822F0847222F480321A601A6822F494
:1009000080221A605A6822F4FE025A604FF41F02D5
:100910009A601A6842F480321A6019681A4A880389
:10092000FBD51B49086840F010000860086820F0FB
:1009300003000860086840F00200086051685160D8
:1009400051685160516841F480615160516821F4EF
:100950007C115160516841F4F8115160116841F007
:10096000807111601968084A8901FBD5516821F02E
:1009700003015160516841F0020151605A6802F070
:100980000C02082AFAD108BD001002400000FFF056
:100990000020024000207047F0B508218DB02248A9
:1009A00001F06AFB0021102204A807F0ADFB092327
:1009B00000931E4804A91022032300F0CFF800285A
:1009C0004FF000002DDB1A4B186010230393002416
:1009D00003AB009301941548164940F21F5208AB2F
:1009E00000F0E8F8A042F0DD134D144E2B682046CD
:1009F00001332B60376800F001FF114B1A681C604F
:100A00002B68BA1A1044B3F57A7F3060DDD10D4AF5
:100A10002C6013683460591C11600B4A42F82300A3
:100A2000D3E70DB0F0BD00BF1822002058220020EF
:100A30001C000020C01C0020E0210020B81800206D
:100A4000BC180020B4180020E4210020F0B5334D7C
:100A5000ADF2045D092311AC23602B68002B10DA82
:100A60002F4B30488DE818002F4B4FF480610293D4
:100A700006220823FFF7B0FE0028DCBF4FF0FF334B
:100A80002B600023E35440F2BB4201339342F9D17F
:100A900007A800F0DBF9254B00210DA8102209AFB3
:100AA000089307F031FB384608A900F03BFD002809
:100AB0002FD00A264FF47A751D4B00201A68013298
:100AC0001A6000F09BFE1B4B032218601023029259
:100AD00009220392049200970193204631460DAA01
:100AE00000F074F8013DE7D1643640F21E539E4297
:100AF000E0D1114B1148E958043507F00DFB342DB6
:100B0000F7D10F4807F080FB0E4807F07DFB00206F
:100B100000E001200DF2045DF0BD00BF1C000020CC
:100B200099090008C01800208E8F00083A3A310059
:100B300020000020BC180020E4210020998F00082C
:100B40008D8F00089E8F0008B0F90C3001461BB154
:100B50000420014400F094B97047000038B5032B1D
:100B600015464FF004020446427018D1102D19D1D9
:100B7000103001F0FCFAC0B1022323702046256238
:100B8000FFF7E2FF0A4B60781B88211DA381BDF8A7
:100B9000103040B2A36000F063F9002038BD6FF060
:100BA000690038BD6FF0150038BD6FF07C0038BDAE
:100BB0001401002070B590F90060022E03D1BDE849
:100BC000704001F081BA6FF0080070BD2DE9F74365
:100BD00004460D460020214690461F462A460346FD
:100BE0000B9E00F04DFA022200920DA90EAB814639
:100BF00000F03AFC044608B9484619E00C9B032B68
:100C000023D1B8F1000F01D0102F01D1102E05D043
:100C1000204600F015FB6FF015001AE00A9B0096C5
:100C200020464146FAB200F019F8034628B920469A
:100C300000F006FB6FF00B000BE00420064940F2C9
:100C4000022200F078F8284603E000F0F9FA6FF08D
:100C5000690003B0BDE8F0830000FFFF2DE9F84311
:100C600012F0EF0F8946154698469DF8206002D095
:100C70000020BDE8F88316F0EF01F9D12822022305
:100C800000F0FEF907460028F2D08468B9F1000FA1
:100C900007D035B104F1080049462A4607F02BFA7F
:100CA00010E0002525726572A572E57225736573E3
:100CB000A573E57325746574A574E574257565756C
:100CC000A575E57504F1180505EB06100021C6F1C0
:100CD000100207F019FAB8F1000F06D02EB128461D
:100CE0004146324607F007FA19E00023237663767F
:100CF000A376E37623776377A377E37784F82030CE
:100D000084F8213084F8223084F8233084F82430A9
:100D100084F8253084F82630012384F827306022B7
:100D200000232270FF226370A370E370A271E3714D
:100D30003846BDE8F8832DE9F34180460C46174656
:100D40001E4600F0C7F80546D8B12146404600F0DF
:100D5000AFF8691E0446304600F05EFA8CB1218976
:100D6000684609B2ADF80270019601F013F9002847
:100D700002DC304600F064FA204600F0BFF804467A
:100D8000ECE7284602B0BDE8F08107B5034640F223
:100D90000222019168461946ADF8022001F0FAF8E6
:100DA00003B05DF804FB07B5034640F20122019150
:100DB00068461946ADF8022001F0ECF803B05DF882
:100DC00004FB10B588B006930A9B0446ADF81C30AE
:100DD0004FF401738DF81410ADF81620ADF80630FD
:100DE00001A805AB03A92246029301F0F7F8049885
:100DF00008B010BD10B588B006930A9B0446ADF844
:100E00001C3040F203238DF81410ADF81620ADF815
:100E1000063001A805AB03A92246029301F0DEF8D3
:100E2000049808B010BD0000074B10B51C8821B213
:100E3000814201D1002010BD1CB9188002F006F9D2
:100E4000F8E76FF00B0010BD7C220020034B1B88DD
:100E500013B1038001207047184670477C220020A0
:100E6000C3B2042B07D8054B53F820200A6043F87F
:100E70002010002070476FF015007047802200207E
:100E8000C3B2042B11D8094A52F820308B4206D144
:100E90001B6842F8203070478A4204D013461A6813
:100EA000002AF9D101E00A681A6070478022002008
:100EB000C3B2042B09D8064B53F8200020B1436875
:100EC0008B4203D00068F9E770470020704700BFED
:100ED00080220020C3B2042B0BD8074B53F82030DC
:100EE00000202BB15A681B688A4208BF0130F8E71E
:100EF00070470020704700BF8022002028B1426860
:100F0000006810B143689342FAD1704749B190F933
:100F10001030032B03D0042B06D100F08BBA01F064
:100F20002BBA6FF0150070476FF00100704700009A
:100F300010B5124C072888BF033023688CBF20F0FF
:100F4000030008200022B3B15968884202D91A462A
:100F50001B68F8E7091A072905D819680AB921603A
:100F600009E0116007E018440AB9206000E0106051
:100F70001A6841600260184610BD00BF942200202C
:100F800010B51A4C1A4B041BB4F5C05F1A681C4606
:100F90002AD2002322B1824202D213461268F9E714
:100FA0000729026086BFCA1C22F0030208224260A1
:100FB0000BB920600BE0596818601944411A0729E1
:100FC00005D80168C01A024419605A6018460368BF
:100FD00053B1426802449A1A072A05D81A68026077
:100FE0001A1A5B681344436010BD00BF98220020AA
:100FF000942200202DE9F843814614200E46154620
:101000009846FFF795FF0446C0B12846FFF790FFCA
:10101000074630B920461421FFF7B2FF3846BDE835
:10102000F8830123C4F80490E560A06084F8108080
:1010300023601EB131462A4607F05DF82046BDE820
:10104000F883000010B50B4C2046FFF72BFB0A4B32
:101050000A4A18211360002220461A705A709A70AA
:10106000DA701A7159719A71DA71BDE81040FFF7A0
:1010700045BB00BF983A002098220020942200200F
:10108000F8B51E46531EB3F5C05F05460F4614461D
:101090000ED20848FFF706FB22463946334628465B
:1010A000FFF7A8FF04460348FFF728FB2046F8BDDA
:1010B0000020F8BD983A002007292DE9F84388BFA1
:1010C000CF1C04460D4636488CBF27F0030708277F
:1010D0009146FFF7E7FA2DB124B1E3689D4201D8AC
:1010E000A2682AB92E48FFF709FB0020BDE8F88363
:1010F0009D4207D184F810902948FFF7FFFA204657
:10110000BDE8F8831420FFF713FF06460028E9D056
:10111000BD4203D3E3685B1B072B2AD82846FFF7A1
:1011200007FF074610B9304614210BE0E068401B6A
:10113000FFF7FEFE804640B930461421FFF720FF3E
:1011400038462946FFF71CFFCCE7A1682A463846F7
:1011500006F0D1FFA168E2682944521B404606F020
:10116000CAFFA068E168FFF70BFFB760C4F808800A
:1011700004E0A3688360A3682B44A360E368084885
:101180005B1BE3606368F5607360012386F8109071
:1011900033606660FFF7B2FA3046BDE8F88300BFFF
:1011A000983A0020072970B588BFCE1C04460D462A
:1011B00018488CBF26F003060826FFF773FA25B9F6
:1011C0001448FFF79BFA0C2070BDE1688D421BD0DC
:1011D00002D8891B072912D82846FFF7A9FE064620
:1011E0000028EDD0E268A168954238BF2A4606F093
:1011F00082FFA068E168FFF7C3FEA66003E0A06875
:101200003044FFF7BDFEE5600248FFF777FA0020A3
:1012100070BD00BF983A002038B5044607480D4617
:10122000FFF740FA24B123682B4423606468F9E790
:101230000248BDE83840FFF761BA00BF983A002085
:1012400038B504460D48FFF72DFA94B194E828000C
:10125000012B0AD10023A068E1682360FFF790FE0C
:1012600020461421FFF78CFE01E0013B23602C4651
:10127000EBE70248BDE83840FFF740BA983A002053
:1012800038B504461148FFF70DFA0CB1E26822B9EF
:101290000E48FFF733FA002038BD2368012B0FD921
:1012A0006068A16894F91030FFF7A4FE054610B1FC
:1012B0002368013B23600548FFF720FA284638BD24
:1012C0000248FFF71BFA204638BD00BF983A0020BD
:1012D000F8B5064685890F4614460020D4B9B16892
:1012E000082200F001F997F91030022B1DD14219A4
:1012F0004FF6EE739A42C8BF0130B968C8BF80B2DA
:10130000113528440831202280B200F0EDF8C043A6
:1013100080B2F8BDB442E2D0A168A28900F0E4F83E
:10132000E36864681D44ADB2D8E70020F8BD000052
:1013300030B540F2052399B0ADF80E3008216FF0BA
:10134000850308A8049300F097FE384B0420069309
:10135000374B05A91B88ADF81C30FFF781FD01A8AC
:1013600000F086FEBDF806306FF400721344032BC4
:10137000F5D8DFE803F002255656029D2846FFF710
:101380007FFF044610B308210422FFF795FE0028D2
:1013900043D0002385682374214691F91030022B35
:1013A00002D049680029F8D12246FFF791FF0028B2
:1013B00033D16988042049BA89B240F2012227E07A
:1013C000029D2846FFF75CFF044608B9284625E041
:1013D0004068254658B190F91030042B07D0FFF72C
:1013E0004FFF0346C8B1686040681D46F2E7FFF74B
:1013F00047FF90B181680023C26840681344002809
:10140000FAD15BBA8B8094F91000084940F20222AD
:101410002346FFF790FC0028A1D12046FFF710FFDC
:101420009DE701A803A900F0F9FD98E70000FFFF80
:101430001401002010B5044668B161B190F9103074
:10144000042B0BD14268FFF743FF50B1A36840BAA9
:10145000D880002010BD6FF00D0010BD6FF04C0063
:1014600010BD6FF0010010BD38B51C460D46B1B17E
:10147000BBB1022A17D1049B022B14D100210822F0
:101480000423FFF7FDFD78B12B8882685BBA1380D7
:1014900023885BBA538000239371D37138BD08460B
:1014A00038BD184638BD002038BD00001FB50A4CB5
:1014B000B4F9003063B9094A09488DE80C00094BBA
:1014C0004FF48061029305220823FFF785F92080FD
:1014D000B4F9000004B010BDA03E00203113000894
:1014E000A03A0020A38F0008F0B50B465508002451
:1014F000AC4203F1020308DA13F8027C13F8016C22
:10150000013406EB07263044F2E7D30703D511F880
:10151000153000EB0320030C80B201D01844FAE729
:10152000F0BD00002DE9F0470F46044610B9002039
:10153000BDE8F0870029FAD0002303704370837060
:10154000C370037143718371C371037243728372F9
:10155000C372037343738373C3730B783A2B04D042
:101560000025A9462E46A84618E04A784B1C3A2A80
:10157000DDD11F46F4E72C48514606F04DFE98B9E0
:101580002A48514606F048FE80B1284BC01A40EA6E
:101590000616B6F5803FCAD24FF0010917F801AB25
:1015A000BAF1000FE7D119E01F4BEFE7BAF13A0F9C
:1015B000BDD1B9F1000F05D1B8F1000FB7D104EBDF
:1015C0000508EBE7102DB2D86B1C320A6255DBB26E
:1015D0000235E654EDB206468146DFE72A46B9F108
:1015E000000F08D0AB1C102BA1D8310A6155DDB219
:1015F000531CDBB2E654B8F1000F0FD02544C8EB02
:1016000005050023013B5A42AA4209DC08EB05020A
:10161000D05CE11808740021D154F3E7102D86D175
:101620002046BDE8F08700BFB88F0008A78F0008EC
:101630000B8A10B59C0719D58B899B0716D50B8A89
:1016400023F002031B041B0C0B82948C938EA4B218
:101650009BB29C4265D38B8923F002031B041B0CB5
:101660008B81344B53F8203000201BE00B8A5C0741
:101670001AD58B895B0717D50B8A23F004031B044B
:101680001B0C0B82948C138FA4B29BB29C4248D348
:101690008B8923F004031B041B0C8B81254B53F80F
:1016A0002030012098473CE00B8A1C0719D58B8914
:1016B0001B0716D50B8A23F008031B041B0C0B8297
:1016C000948C938FA4B29BB29C422AD38B8923F033
:1016D00008031B041B0C8B81164B53F8203002208F
:1016E000E0E70B8ADC061AD58B89DB0617D50B8A57
:1016F00023F010031B041B0C0B82948CB2F84030B7
:10170000A4B29BB29C420CD38B8923F010031B0420
:101710001B0C8B81074B53F820300320C2E70023BA
:101720000B82054B1B681BB1BDE81040FFF73AB8B0
:1017300010BD00BFA43E00208C00002010B520B1D9
:10174000012851D12A482B4B02E02B484FF080430F
:101750009C8924F001042404240C9C81032943D88F
:10176000DFE801F00211202F91B2120C99868286D7
:101770001A8A22F002021204120C1A829A8992B278
:1017800042F002022DE091B2120C198702871A8AE8
:1017900022F004021204120C1A829A8992B242F0C8
:1017A00004021EE091B2120C998782871A8A22F0F5
:1017B00008021204120C1A829A8992B242F00802AC
:1017C0000FE091B2120CA3F84010A0F840201A8A42
:1017D00022F010021204120C1A829A8992B242F07C
:1017E00010029A81002010BD4FF0FF3010BD00BFE5
:1017F000000C0040000800400004004010B1012827
:1018000010D01EE0104B4FF08042908C998C928C3F
:101810009B8C80B292B240EA014042EA0343984274
:10182000F0D17047094A0A4B908C998C928C9B8C12
:1018300080B292B240EA014042EA03439842F1D1B9
:1018400070470020704700BF0004004000080040BF
:10185000000C004010B1012809D070470B4B1A88CA
:1018600092B242F001021A804FF0804308E0084B28
:101870001A88A3F5806392B242F00102A3F8002413
:101880001A8892B242F001021A80704700040040A8
:10189000000C004010B1012808D07047074B4FF0F2
:1018A00080521A604FF000521A607047034B4FF09D
:1018B00080421A604FF480225A60704700E100E0D5
:1018C00070B5054680B1012842D1234B234CD8691D
:1018D00040F00C00D861224B102083F81E0383F8DF
:1018E000320320201F4B0EE01B4B4FF08044D86981
:1018F00040F00300D8611A48102380F81C3380F8A8
:101900001D331846184B194E01EBC10146F825202E
:101910008422228004221A80A288C90092B242F056
:101920002002A28089B24FF6FF72A28521851A8912
:1019300092B2104318811A89284692B242F00702E7
:101940001A81FFF7A7FF2846FFF784FF002070BD2C
:101950004FF0FF3070BD00BF001002400008004093
:1019600000E100E0000C004000040040A43E002024
:1019700000204FF08041014AFFF75ABE00040040AA
:1019800001200249024AFFF753BE00BF0008004091
:10199000000C0040F8B50C46054600283DD1204B10
:1019A00020489A690B2142F480429A6100F0EEF8D7
:1019B000042229461C4800F09FF8200105F048FE4B
:1019C00001461A4805F050FF044600F04DF906F0B4
:1019D0005DF886B2304605F03FFE0146204605F030
:1019E00085FD134C4FF0834105F08AFE00F03CF971
:1019F000258106F04BF8278900F00F00BFB207439E
:101A000047EA0616B6B22681A38928469BB243F45C
:101A1000005343F00C03A381F8BD6FF00100F8BD43
:101A200000100240090801400A0801404054894C56
:101A30000038014070B5044615461E46FFF7AAFF60
:101A4000002815DB94B90B49102381F82533202396
:101A50004B60094920468B899BB243F020038B8160
:101A60000649049B81E860008B6070BD6FF0010047
:101A700070BD00BF00E100E000380140AC3E002036
:101A800030B9054B1A881206FBD5998001207047A2
:101A90004FF0FF30704700BF0038014010B5134CC5
:101AA0002388990606D5124BA1881A689868C9B28E
:101AB000904712E023881A0701D5A3880DE02388F8
:101AC0001B060AD50A4B5A689868904728B9A3891B
:101AD00023F080031B041B0CA381064B1B681BB166
:101AE000BDE81040FEF75EBE10BD00BF00380140EB
:101AF000AC3E00208C000020F0B5C0F38326023EEF
:101B00004FF0040C0CFA06F61F4C20F00F03A769E7
:101B100000F00F053E4300F00700A66180000F268D
:101B20008640EC1053F82470012927EA060643F892
:101B300024600DD1624523D1032606FA00F001FA94
:101B400005F553F82420104343F824005D6115E0A7
:101B500002F00C0606FA00F053F8241002F001021D
:101B600008430121A94002FA05F543F82400D8688A
:101B700020EA0101D960D9680D43DD600020F0BD85
:101B80004FF0FF30F0BD00BF00100240C0F38322D1
:101B900030B5023A042505FA02F20D4B9C69224346
:101BA0009A6120F00F03C0F3C00200F0070080002C
:101BB0000F248440814053F8225025EA040443F85E
:101BC000224053F822400C4343F8224030BD00BF6E
:101BD0000010024010B500240122A2400B4B5969AD
:101BE0000A4207D05A610A4B03EBC402506853F80B
:101BF000343098470134102CEED1064B1B681BB1D2
:101C0000BDE81040FEF7CEBD10BD00BF000401408E
:101C1000B83E00208C00002070B513467BB185686B
:101C2000C468A5420BD084680568661C8660466857
:101C3000013B013E34402C5D01F8014BEEE7D01A28
:101C400070BD30B5C46883684268E31A934208D017
:101C5000C3680468013A5D1C1340C560E15400206C
:101C600030BD4FF0FF3030BD2DE9F04120F000478E
:101C7000FD0D7F3D162D064613DC002D80461BDB37
:101C8000194F2F41074214D0184905F031FC0021AB
:101C900005F0F2FE68B1002E1BDB28EA0700BDE864
:101CA000F081B7F1FF4F04D3014605F021FCBDE8F8
:101CB000F0813046BDE8F0810C4905F019FC0021A7
:101CC00005F0DAFE0028F4D0002E08DB0020BDE885
:101CD000F0814FF4000343FA05F5A844DDE7002F37
:101CE000E7D00348BDE8F081FFFF7F00CAF24971E9
:101CF000000080BF08B505F0D5FAFFF7A3F903F09F
:101D000069F800F031FDFFF7D1FB00F005F8BDE800
:101D1000084001F035BB000013B5074C204605F024
:101D200079F800944FF480610322044B044802F0D8
:101D300017FF02B010BD00BF38430020C98F000854
:101D4000383F002010B5036AC469426A1C1B9442E4
:101D500001DD002010BD5C1C13400462F9D4806AD0
:101D600000EBC30303C983E80300012010BD00009A
:101D70002DE9FF411F462A4B064653F82150294BB7
:101D800090461B8803802DB93846FEF7E6FA4FF0DF
:101D9000FF3440E0AB88032B2FD028463146FFF7B5
:101DA000D1FF044648B13846FEF7D7FA1E4B1B68F0
:101DB0009B889BB2052B2DD12AE0B8F1000F03D1EF
:101DC0003846FEF7CAFA26E0DFF85C8004A9D8F8A6
:101DD000003041F80C0D1A8905F1180092B20393F6
:101DE0000292FEF7CFFCD8F80000466183889BB2D0
:101DF000052B14BF0421052105E06B6903C883E8A6
:101E0000030028460721FEF709FA3846FEF7A5FA2F
:101E1000FEF708FB0124204604B0BDE8F08100BFB6
:101E20009000002014010020180100202DE9F0414D
:101E30000E460546FEF789FA364B07461A88364B9A
:101E400012B253F82240A16AD9B1E269236A9342DF
:101E500017D0531CE361636A1340984646B95A1C75
:101E600006D13846FEF779FA4FF0FF30BDE8F08131
:101E7000002B0ADB01EBC30393E8030085E80300B2
:101E800004E0002EEDD04FF0FF38656104F118003A
:101E9000FEF772FC80B9B8F1000F09DA2046032181
:101EA000FEF7BCF93846FEF758FAFEF7BBFA2EE00B
:101EB0003846FEF752FA2AE0B8F1000F86680DDBCB
:101EC000236AE169626A591A9142A56AD7BF591C0F
:101ED0004FF0FF331340216205EBC305736993E8AC
:101EE0000300B38885E80300052B07D00023736146
:101EF00030460721FEF792F9348900E00F24384676
:101F0000FEF72BFA0E2C02D82046FEF7BBF9012073
:101F1000BDE8F081140100209000002038B504468F
:101F2000FEF713FA074B21461B8805462380064B14
:101F30001868FFF707FF04462846FEF70EFA20460A
:101F400038BD00BF14010020180100200F4B10B550
:101F500053F821300246B3B1212101809988032929
:101F60000BD103C85C6984E8030018460721FEF71B
:101F700055F9074B0120186010BD18461146BDE801
:101F80001040FFF7DFBE4FF0FF3010BD9000002083
:101F90008C00002070B504460D46FEF7E1F90646B8
:101FA00028B120462946BDE87040FFF7CFBF0A4B55
:101FB0001B881BB2AB4204D12046BDE87040FFF73E
:101FC000ADBFFEF7C2F92946034632462046BDE8BA
:101FD0007040FFF7CDBE00BF140100202DE9F04195
:101FE0000D4690460746FEF7B0F90A4B06461A889A
:101FF000094B12B253F8224005212046FEF70EF994
:1020000065613846414633460122BDE8F041FFF79D
:10201000AFBE00BF140100209000002070B5044640
:102020000D46FEF792F9B4F90020104B064653F81E
:102030002240BCB1A388052B02D0FEF78EF911E037
:10204000636995E8030083E8030007212046FEF753
:10205000E5F824893046FEF780F92046FEF712F9AC
:10206000012070BD4FF0FF3070BD00BF9000002018
:102070000121FFF7DBBE000049B14A1E114006D125
:10208000054B1B689862D96119625A6201E04FF0F2
:10209000FF310846704700BF18010020094B4FF080
:1020A00000629A60102283F82220DA77002303F17D
:1020B0006042013302F5614210213C2B82F800138B
:1020C000F5D1704700ED00E02DE9F74F0D9F8146F7
:1020D0008A46934698460426013E20D06846FFF77C
:1020E000C7FFBDF8022040F201239A4213D1019CA0
:1020F000E3685B4516D823466BB193F9101099F944
:102100000020914201D05B68F6E799F80120AAB15E
:10211000A7B125464DB96846FFF700FFDCE76FF031
:10212000730021E06FF00B001EE0297C8A4201D091
:102130006D68EFE7AA68128852BA3A80B8F1000FCA
:1021400008D0996810224046083105F0D4FF0C9B56
:1021500010221A60A168E268504605F0CCFFE568DD
:102160002046FFF76DF8284603B0BDE8F08FF7B5BD
:102170000A684B68064652EA03000F4607D1886892
:10218000C96850EA010414BF0024012400E00024BF
:1021900034B13A687B6852EA030017D000211FE08F
:1021A00052EA030109D1BA68FB6811BA18BA0029CA
:1021B00008BF012814BF00240124002CE9D101A884
:1021C000394600F0FBFF0028E3D12FE0BC68FD6832
:1021D00021BA28BA002908BF012814BF0021012113
:1021E00061B952EA030407D1FB68BA6852EA0300F6
:1021F00014BF0023012300E00B468BB10023337092
:102200007370B370F37033717371B371F3713372B0
:102210007372B372F37233737373B373F37304E053
:1022200030463946102205F066FF0124204603B0EF
:10223000F0BDF8B5064685890F461446002064B9FE
:10224000B168B289FFF750F94FF6C57342199A4247
:1022500039680DDD013080B20AE0B442F0D0A168E7
:10226000A289FFF741F9E36864681D44ADB2E6E76F
:102270003A3528440831202280B2FFF735F9C043AF
:1022800080B2F8BD2DE9F34180460D460C461CB1E5
:1022900094F91030032B01D1264606E06468F6E776
:1022A00096F91030022B02D07668002EF8D1204625
:1022B00006F108012A46A768FFF7BBFF002848D1AE
:1022C0003B78853B032B26D8DFE803F0020B141D77
:1022D000E368404600932946B2683B4601F074FB30
:1022E00019E0E368404600932946B2683B4601F096
:1022F000E1FB10E0E368404600932946B2683B46A4
:1023000001F09EF907E0E368404600932946B26871
:102310003B4601F083FA03203978FEF7C9FD0446F5
:10232000B8B139780320FEF7D5FD01462846FEF7FF
:1023300073FFB4F908002946FEF735FD002802DCDA
:102340002846FEF77DFF2046FEF7D8FD044600280C
:10235000EFD102B0BDE8F08138B50D46144600213A
:102360001A460323FEF78CFE28B1836800221D70F5
:102370005C709A70DA7038BD10B5044668B190F997
:102380001030032B0CD108314268FFF752FF50B1D7
:10239000A36840BA5880002010BD6FF00D0010BD3A
:1023A0006FF04C0010BD6FF0010010BD884210B5F9
:1023B000044608BF446808D023465A682AB18A42B6
:1023C00001D01346F9E74A685A60002308464B607B
:1023D000FEF736FF204610BD38B51546FEF768FDFE
:1023E000044668B1B4F908002946FEF7DCFC002871
:1023F00002DC2846FEF724FF2046FEF77FFDEFE7CC
:1024000038BD000038B58B680C465880054600F092
:1024100055FE636800211BB1DA685B681144FAE776
:10242000B0F89431994204D92046BDE83840FEF70F
:1024300007BF60B1B0F89231DB0708D5012007492A
:1024400040F202222346FEF776FC30B9ECE728463C
:102450002146FEF79AFC0028E6DD38BD0000FFFFAC
:102460002DE9F84389468E680746904600211AB147
:10247000D06852680144FAE7B27949BAFF2AB180BC
:102480000BD198F81020023AD2B2022A03D82F4971
:102490008A5CFF2A00D13B22B271F27942B90FB9AE
:1024A000402204E0384600F009FE90F89621F271CF
:1024B000B068F16850EA010307D13469756954EADC
:1024C000050314BF0022012200E0002282B3B0699C
:1024D000F16950EA01030AD1346A756A23BA2ABA4B
:1024E000002B08BF012A14BF0022012200E00022B5
:1024F00092B1002232727272B272F27232737273DD
:10250000B273F27332747274B274F274327572759B
:10251000B2750122F2750BE006F11801384600F0A1
:1025200085FE014620B106F10800102205F0E3FD0A
:1025300040464946FEF7EAFC002804DA831C08BF3F
:102540000020BDE8F8830020BDE8F883DB8F000899
:102550002DE9F04F85B090F9103000AF013380467F
:102560008B4609D183685E88FEF78AFE002800F05A
:10257000E4804468804601E0044600262046FEF7D9
:102580007FFE8146002800F0D8804445816818BF4E
:10259000C8F804900B7E08BF8046FF2BD0F804A03B
:1025A00034D1E6B907F10800FEF750FC002800F02E
:1025B000C4800020014608224FF0FF333E89FEF719
:1025C0005FFD002800F0B980836800221A705A70FD
:1025D0005A805A719A711A71C0F80480804634B2D8
:1025E000BBF1000F07D0204649465246FFF738FF9F
:1025F0000028C0F2A280D8F8083020461A79414657
:1026000042F040021A71FFF7FDFEA6E08A69CB692D
:1026100052EA03000AD10C6A4D6A23BA2ABA002B87
:1026200008BF012A14BF0023012300E0002353B98F
:1026300001F11804002E3BD1381D214600F0BEFDEB
:10264000064600283AD0BBF1000F06D030B249460A
:102650005246FFF705FF00286FDB48460022C3689B
:1026600040681A440028FAD101460223FEF708FD0B
:102670000446002861D085682846D9F80810D9F8A2
:102680000C2005F038FDD9F80C30D9F804901D4421
:10269000B9F1000FF0D14046FEF7D2FD314B214693
:1026A000B3F90000FEF77FFB002856DC204645E02A
:1026B00030B2214600F05CFD0028C4D10823FB7035
:1026C000F81832B2F91C234603F0A6FD6D46064603
:1026D000002836D0BBF1000F05D049465246FFF71F
:1026E000BFFE00282DDB98F91030FC78013304D1AF
:1026F00040464146FFF75AFE80460020014604F15D
:1027000008024FF0FF33FEF7BBFC8146C8B1836877
:1027100000221A705C705A805A719A711A71ACB1A9
:1027200083685A78A24211D1187807F1080108305D
:102730001844224605F0DFFC08E04046FEF780FD25
:102740000BE04046FEF77CFDAD4606E0C9F804808C
:1027500030464946FFF756FEF6E71437BD46BDE85A
:10276000F08F00BF584300201FB50A4CB4F9003069
:1027700063B9094A09488DE80C00094B4FF48061A0
:10278000029304220823FEF727F82080B4F9000002
:1027900004B010BD58430020E92900085A43002026
:1027A000D68F0008292A70B50C46154608D03A2A5B
:1027B00004D0112A0CBF0423002302E0032300E00D
:1027C0000223292D237405D03A2D14D12146FFF779
:1027D00059FD10E000232374616839B191F910307C
:1027E000022B03D12046FFF7E1FDF5E70223237416
:1027F000204600F023F8104994F91000FEF76AFB18
:10280000294606460220FEF765FB3118204603D113
:10281000BDE87040FEF714BD0139FEF7FDFC94F9E8
:10282000100022460449FFF7D7FD29462246022020
:10283000BDE87040FFF7D0BD0000FFFF2DE9F04775
:10284000814606463EB196F91030013301D07668D4
:10285000F8E7B3685E88D9F804A0BAF1000F10D089
:102860009AF91030022B0CD1DAF80C30282B08D151
:10287000DAF808301B7803F0F003602B40F09C80FE
:102880001AE0D9F808301B7803F0F003602B40F011
:1028900093804846FEF7F4FC0446002800F08C8044
:1028A00028210222FEF708FCA146824620B92046D4
:1028B000BDE8F047FEF7C4BCDAF80880D9F80C3060
:1028C000B8F8041049BA89B2994202D24846FEF7D4
:1028D00069FCD8F81820D8F81C3052EA03010CD152
:1028E000D8F82430D8F820201CBA15BA002D08BF1B
:1028F000012C14BF0023012300E00023002B68D12A
:1029000008F1180136B9304600F058FC0646D0F1FF
:10291000010004E030B200F02BFCD0F1010038BF20
:102920000020002855D0D8F80820D8F80C302D4FBA
:1029300018BA11BA0026B94208BFB0420BD098F8B5
:102940000830FF2B09D198F8095005F00F05AA1E91
:102950005542554102E0012500E0002529465DBBB6
:10296000D8F81820D8F81C3015BA1CBABD4208BFD8
:10297000B4420BD098F81830FF2B09D198F81950B1
:1029800005F00F05AB1E5D425D4102E0012500E050
:102990000D468DB998F807304846013BDBB288F800
:1029A0000730002B84D0FEF76BFC06465046FEF73E
:1029B00067FC044600B10EB9484679E74068FEF767
:1029C0003FFC6660204675602946BDE8F047FFF78A
:1029D000BFBD30B2494698F80620BDE8F047FFF782
:1029E000E1BE00BF000080FE00B599B0082108A834
:1029F000FFF742FB594B02200693594B05A91B8850
:102A0000ADF81C30FEF72CFA40F20523ADF80E307D
:102A100001A8FFF72DFBBDF806306FF400721344D8
:102A2000232BF5D801A252F823F000BFBD2A0008DD
:102A3000C52A0008CF2A0008CF2A0008112A00085A
:102A4000112A0008112A0008112A0008112A00087A
:102A5000112A0008112A0008112A0008112A00086A
:102A6000112A0008112A0008DF2A0008EB2A0008B2
:102A7000F52A0008112A0008112A00084B2B00082B
:102A8000112A0008FD2A0008112A0008112A00084E
:102A9000112A0008112A0008112A0008112A00082A
:102AA000112A0008112A0008052B00080D2B000828
:102AB000152B0008272B00082F2B00080298FFF782
:102AC000BDFEA5E702980121FFF742FDA0E76FF0E8
:102AD000850301A803A90493FFF7A0FA98E7029BD6
:102AE0005A7E22F008025A7692E70020029900F0FE
:102AF0002DFB8DE7029801F023F989E7029801F098
:102B0000A9F985E7029803F02BFB81E7029803F00F
:102B10005BFB7DE7029B587C00F00F0002F0C8F9D8
:102B20000023037474E7029803F00AFE70E7029929
:102B30004B7E03F03003202B02D0302B7FF468AFA4
:102B4000B1F91A0000F0E2F862E7029A0021B2F946
:102B50001A000B4601F01AFD5AE700BF0000FFFF04
:102B6000140100200268436852EA030107D1826819
:102B7000C36852EA030114BF0020012070470020FF
:102B8000704700002DE9F04F87B0059091469846B8
:102B90009DF840700E46002974D0082B74D8084662
:102BA000FFF7E0FF00286FD173683168039302914B
:102BB00003468246374A4FF0B40B0BFB032BDDE98B
:102BC0000201DBF80040DBF8045094468D4208BF58
:102BD00084420CD1DBF80800DBF80C10B468F5680F
:102BE000A94208BFA04214BF0022012200E0002237
:102BF000C2B1B9F1000F13D0B8F1000F10D0B42456
:102C00005C4304F11000604449464246CDF804C0DC
:102C100005F071FADDF804C0644484F81880677622
:102C2000584634E058460193FFF79CFF019B18B1CA
:102C3000BAF1000F08BFDA460133082BBAD1BAF156
:102C4000000F23D005995046AAF81A1010223146D9
:102C500005F051FAB9F1000F0AD0B8F1000F07D012
:102C60000AF110004946424605F045FA8AF81880F4
:102C700007F00703022B8AF8197007D103238AF89B
:102C8000B03003E0084602E0002000E0504607B004
:102C9000BDE8F08F5C4700202DE9F04180460F46EB
:102CA000084661B3FFF75EFF58BB174E3146738B82
:102CB0002BB1B8F1000F02D01BB2984519D134687E
:102CC00075683A687B689D4208BF94420AD1FB68E8
:102CD000B468F568BA689D4208BF944214BF0023E7
:102CE000012300E0002323B1B42707FB0010BDE857
:102CF000F0810130082806F1B406D8D101E0BDE822
:102D0000F0810020BDE8F0815C47002010B5FFF79E
:102D1000C3FF0446C8B1703004F0F8F904F18C0028
:102D200004F0F4F9002323706370A370E37023713F
:102D30006371A371E37123726372A372E3722373ED
:102D40006373A373E3736383637610BD10B510B12F
:102D500000F1B40406E0074C04E02046FFF702FF50
:102D600028B1B434044B9C42F7D3002010BD204658
:102D700010BD00BF5C470020FC4C002008B5FFF7E9
:102D8000E5FF10B1437E1B07F9D508BD30B50A68D1
:102D9000046845684B689D4208BF94420AD1846824
:102DA000C5688A68CB689D4208BF944214BF002062
:102DB000012030BD002030BD0268436852EA0301A3
:102DC00007D18268C36852EA030114BF00200120C2
:102DD0007047002070472DE9F04100F5C4760746A2
:102DE00030468846FDF75EFC0025382404FB057458
:102DF00041462046FFF7CAFF90B10023237063705D
:102E0000A370E37023716371A371E3712372637222
:102E1000A372E37223736373A373E373237402E0F7
:102E20000135072DE1D13046BDE8F041FDF766BC24
:102E30002DE9FF4700240746884692461D46264650
:102E400007EB040948464146FFF7A0FF002840F081
:102E500082804846FFF7B0FF10B1002E08BF4E46F3
:102E60003834B4F5C47FEBD1B146002E73D0304670
:102E70004146102205F03FF9337886F811A0FF2B68
:102E8000357416D0B7F89231DA0712D501F0B6F9D9
:102E9000054670B107F5C4742046FDF72FFCB7F95D
:102EA000900131462A462B4601F064FA2046FDF790
:102EB000F9FB98F80030FF2B04D1337C43F0010379
:102EC000337448E0D8F80430D8F800201CBA244BFA
:102ED00015BA00229D4208BF944219D0B7F892312A
:102EE00003F00603062B17D107F5C4742046FDF73F
:102EF00005FCB7F89231DB0706D50021B7F9900140
:102F00000A460B4601F042FB2046FDF7CBFB03E0EF
:102F1000337C63F07F033374B7F8923103F003031B
:102F2000012B18D040F2FF220023CDE900234FF0FF
:102F300080730293FF238DF80C3098F80D303846DB
:102F40008DF80D30B8F80E306946ADF80E3080229D
:102F50000023FFF76DFF484604B0BDE8F08700BFCF
:102F6000000080FE30B531B10378FF2B03D14078EB
:102F700000F00F0030BD436802681CBA194B15BA47
:102F800000229D4208BF944209D00378FF2B08D14C
:102F9000437803F00F03991E4B424B4102E001239B
:102FA00000E000231A46DBB903884FF6C0615BBA24
:102FB00023F03F031B041B0C8B4209D00378FF2B2B
:102FC00008D1437803F00F035A1F5342534102E0E4
:102FD000012300E01346002B0CBF0E20052030BD5E
:102FE000022030BD000080FE2DE9F8430025804618
:102FF00091461F460C462E463FB10122AA403B781F
:103000001A421AD0237CDB0717D42046FFF7D4FEE0
:1030100098B92046494603F01FFD37B999F80030AA
:10302000FF2B02D0637C834207D8B04205D9B8F1A8
:10303000000F01D0C8F8004006460135072D04F105
:103040003804D9D13046BDE8F88300007FB51A4C6A
:103050000646B4F890512BB283422AD04DBB294684
:103060001022684605F050F8FF238DF80030022347
:103070008DF8013004F5C47001238DF80F30FDF791
:1030800011FB4FF4A063A4F89431402384F89631E7
:10309000694680222B462046A4F89061A4F89251FC
:1030A000FFF7C6FE04F5C470FDF728FB204600F0CC
:1030B000DFFE04B070BD00BFFC4C0020034BB3F931
:1030C000902182420CBF184600207047FC4C002023
:1030D000B0F89231DA0707D511B143F0020301E0ED
:1030E00023F00203A0F892317047B0F89231DB0769
:1030F00001D503F0D5BA70472DE9F0410C461646CC
:103100009846FFF7DBFF0546C0B12046C4B1FFF784
:1031100053FEB8B9802E16DC05F5C4773846FDF7A6
:10312000C1FA2146324643462846FFF781FE04464F
:103130003846FDF7E3FA2046BDE8F081BDE8F081AE
:10314000BDE8F0810020BDE8F081000010B50C461C
:1031500020B90648B0F990313BB102E0FFF7AEFF6D
:103160002146BDE81040FFF736BE10BDFC4C0020E4
:103170002DE9F8438946FFF7A1FF0546C8B100F5E0
:10318000C4773846FDF78EFA0026AC19204649462A
:10319000FFF7FCFD804618B13846FDF7AFFA09E0AD
:1031A0003836B6F5C47FF0D13846FDF7A7FA444665
:1031B00000E004462046BDE8F883000038B5094C1D
:1031C0000546B4F9900125B9FFF7D2FF28B90020D0
:1031D00005E0FFF7CDFF2860F8E7B4F8900100B2F2
:1031E00038BD00BFFC4C00202DE9F341002602ADA4
:1031F000884645F8046DFFF761FF00F5C474074683
:103200002046FDF74FFA2846394642463346FFF737
:10321000EBFE054620461DB1FDF770FA019802E06D
:10322000FDF76CFA284602B0BDE8F0812DE9F04FB9
:1032300089B08846FFF742FF00F5C473064618467A
:103240000193FDF72FFA04A80021012204F05CFF8E
:1032500035464FF0FF3700242B78FF2B0BD0284644
:10326000FFF7AAFD38B90123A3409DF81020274697
:1032700013438DF810300134072C05F13805EBD1DC
:103280007B1C73D00DF1180B22460021584604F028
:103290003BFF40460121FFF765FE9DF810300025F9
:1032A00002900393B1462C460121A140039B194291
:1032B0002FD041464846FFF769FDCA46014600281F
:1032C0004CD14846FFF74EFE029B984209D11BF8AD
:1032D00004100431C9B20BF80410A94288BF0425B8
:1032E0000AE009D21BF804100231C9B2A94228BF72
:1032F0000D460BF80410EDB2D9F8181049B11BF8BF
:1033000004100131C9B28D4238BF0D460BF80410CC
:10331000EDB20134072C09F13809C5D10021012291
:1033200004A804F0F1FE9DF8101000221BF8020022
:10333000A84203D1012090400143C9B20132072ABB
:10334000F4D108A800238DF8101040F80C3D314648
:10335000424604ABFFF748FEDDF814A0BAF1000FB7
:1033600006D14FF0380C0CFB076A01E04FF0000A61
:103370000198FDF7C3F9504609B0BDE8F08F000091
:103380002DE9F04F8DB005A8FDF760FD644E814634
:1033900005AD00274F4500F0C08035F9020BFFF75F
:1033A0008DFE0446002800F0B48000F5C478404645
:1033B000FDF778F94FF0000A0CAB012203F81DADC0
:1033C00035F9020C0E2100925246FDF7FAFC8630C8
:1033D00030D09DF91330012B2CD10823ADF81830D3
:1033E0000DF1300B4FF6FF732BF8103DB6F892310C
:1033F0004FF0020C43F0030335F9020CA6F89231AA
:10340000CDF800C00521524606ABCDF80CC0FDF743
:10341000F1FCDDF80CC035F9020C0921CDF800C033
:1034200052465B46FDF7CDFC35F9020CBDF8201085
:1034300003F0FAFA082335F9020C07210093002261
:1034400006ABFDF7BEFC002803DA4046FDF756F94F
:103450005FE09DF818300CA98DF828309DF81930E0
:1034600048F2FE028DF829309DF81A3020468DF87A
:103470002A309DF81B308DF82B309DF81C308DF8CC
:103480002C309DF81D308DF82D309DF81E308DF8B4
:103490002E309DF81F308DF82F30002361E9042372
:1034A00040220023FFF7C4FC022335F9020C092156
:1034B000009300220DF11603FDF783FC002806DBC4
:1034C000BDF81630B3F5A06F28BFA4F894310423DB
:1034D0001821002235F9020C00930DF11603FDF7B7
:1034E00070FCB4F892310028CCBF43F0800323F085
:1034F0008003A4F892314046FDF700F920460121EF
:10350000FFF7E6FDB4F89231DB0702D5204602F062
:103510000FFE013706F5F4763CE70DB0BDE8F08FFD
:10352000FC4C002013F1860F2DE9FF410746884629
:1035300016461C4655D0FFF7AFFB0546002831D193
:103540003846FFF7BBFDB0F8923103F00303032BBD
:10355000A3B21FD114220292232200923846414680
:1035600032460395FFF70EFB0446002839D000F1E0
:103570008C05284603F0CAFD1B4B4FF40972B3F9C2
:1035800000308DE8140004AC284614E9060003F06E
:103590009FFD26E003220092384641463246FFF75F
:1035A000F1FA1EE0437E03F00703012B0CD0027EEC
:1035B000A3B29A4200F110070CD02C76384631465F
:1035C000224604F098FD2846032104B0BDE8F041EE
:1035D00000F02CBF30463946224604F07DFD00281D
:1035E000EBD104B0BDE8F0815843002073B5044628
:1035F0000E4603F0F3FC0A23B0FBF3F202FB1300C8
:10360000421D72436846B2FBF3F2C4F89C6100218C
:1036100003F03AFD9DE8030004F5D07383E803004E
:10362000064AD4F8A411B1FBF2F3184402FB1313B9
:10363000C4F8A001C4F8A43102B070BD40420F002C
:103640002DE9F04F9946D3798FB0FF2B82468B46F8
:10365000904640F0DD8099F80110002940F0D880B4
:10366000189B172B40F2D48099F80830FF2B00F0FC
:10367000CF809268D8F80C3052EA030009D1D8F80C
:103680001430D8F8102052EA030114BF002301239C
:1036900000E00B46DE071BD5D8F81840D8F81C50C0
:1036A0005D4B2EBA27BA00229F4208BF96420BD12B
:1036B000D8F820301BBA012B06D198F82430B3F18A
:1036C000FF056B426B4100E00023002B40F0A0801F
:1036D000504609F10801FFF74BFD0446002800F0B1
:1036E0009780189BA3F1180C00231D4619461E460F
:1036F000BCF1000F20DD09F118029719925D012A33
:1037000003D0212A08BF3D460FE006AB99F8002000
:103710005846009341463B46CDF814C001F09EF850
:10372000031EDDF814C073DB39467A7806EBC20657
:10373000B6B2ACEBC20CDBE7504605910493FFF741
:10374000BDFC059908F1080606AA049B002949D08A
:10375000002D47D0B0F8921101F00301032941D1A7
:1037600099F800704146019202933A46334600951B
:10377000504602F061FE0F2105F108020023814648
:1037800002F03EFE0746B9F1000F05D10AA8314606
:10379000102204F0B0FC2FE02B7A83F002038DF8A6
:1037A00020306B7A8DF82130AB7A8DF82230EB7AAD
:1037B0008DF823302B7B8DF824306B7B8DF82530F2
:1037C000AB7B8DF82630EB7B8DF8273009990ABA50
:1037D00008990BBACDE90C2348F2FE020023CDE98B
:1037E0000A2309E050463146FFF79CFE0AA83146FD
:1037F000102204F080FC002798F818302146B3F11D
:10380000FF046342009750460AAA634100F01AFD84
:103810000FB0BDE8F08F00BF000002FF2DE9F04FB0
:1038200003F1080989B092460F4649461E46804674
:10383000129CFFF731FA9AF80730FF2B40F0C08056
:103840007578002D40F0BC80172C40F2B980337A97
:10385000FF2B00F0B580002800F0B280A4F1180B17
:103860002C46BBF1000F2CDD06F118031A191B5D65
:103870000592022B0DD0212B16D1059B3278009397
:10388000002301930293404651464B4602F0D4FD7B
:103890000AE006AB0093327838465146059B01F0AA
:1038A00013F8051EC0F28C80059A537804EBC3040C
:1038B000A4B2ABEBC30BD4E797F91030013303D0BC
:1038C0007F68002FF8D100E0BF6840464946FFF707
:1038D000E3F90446002873D0437E03F00703022B6C
:1038E0001AD13FB13B7823B17F78003718BF012749
:1038F00000E01F46F80701D5002D61D006A9A4F805
:103900001A80257604F110002A4604F0F4FB33797E
:10391000204659063DD538E03FB13B7823B17F784A
:10392000003718BF012700E01F4617F0010705D137
:10393000BDB9277E003718BF012712E085B1237E6D
:103940009D420AD004F1100006A92A4604F0C4FBE7
:10395000D0F1010038BF002000E00020074600E061
:103960002F4633799A0602D40FB155B11FE045B105
:10397000A4F81A80257604F1100006A92A4604F05E
:10398000BAFB33795B0602D52046072102E01FB15E
:103990002046032100F04AFD96F90430002B637E97
:1039A000B4BF43F0080323F00803637608E0637EA6
:1039B00003F00703072B03D12046032100F036FD57
:1039C00009B0BDE8F08F00002DE9F04F87B08A46BE
:1039D0001F4681461646DDF84080FFF76FFBB0F8C2
:1039E0009231054699075CD5F379FF2B59D17C7844
:1039F000002C56D1B8F1070F53D9A8F10808234677
:103A0000B8F1000F18DD07F1080202EB040B125D9C
:103A1000012A09D102AB3A785046009331465B4601
:103A200000F01CFF031E3CDB9BF8012004EBC204EA
:103A3000A4B2A8EBC208E3E7083602AA484631461A
:103A4000FFF770FDB5F892315A072AD513F0010F30
:103A5000154F164B04AC08BF1F4603F0BFFAB0FB6E
:103A6000F7F202FB17020021204605F5E67703F086
:103A70000BFB384603F04AFBB5F89231DB0710D553
:103A800048463146FFF708F958B1094B40F2152274
:103A9000B3F9003001900092384694E8060003F034
:103AA00017FB07B0BDE8F08F80841E0020A107003F
:103AB000584300202DE9F04F8DB0904605911D46EA
:103AC0008246FFF7FBFAD8F80C30D8F808200446F5
:103AD00018BA984B11BA0022994208BF90420BD0F5
:103AE00098F80830FF2B09D198F8093003F00F033C
:103AF000981E4342434102E0012300E00023002BD3
:103B000000F0158198F80830FF2B00F0108198F82C
:103B10000730FF2B40F00B816B78002B40F00781C2
:103B2000169A0F2A40F2038108F1080350461946FD
:103B30000393FFF7B1F8064650B9082300933246C5
:103B4000334650460399FFF71DF8064668B9EEE084
:103B5000437E190706D5EA8852BA92B212B923F009
:103B6000080301E043F008037376EB889FB2CFB1FE
:103B70005FBA06F11C0B58460DF12809BFB203F0DD
:103B8000C5FA48463946002203F07EFA6A4B4FF4E4
:103B900004721B888DE84400584699E806001BB261
:103BA00003F096FA2B790BB184F89631B4F8923180
:103BB000C3F30D03A4F892316A79120202F4404271
:103BC0001343A4F89231A96839B1D4F89C3109BAE9
:103BD0008B4202D02046FFF709FDEA68C2B10DF121
:103BE00018094846002112BA03F04EFA99E803007A
:103BF00004F5D47383E80300504AD4F8AC11B1FB48
:103C0000F2F3184402FB1313C4F8A801C4F8AC3152
:103C100004F5C470FCF772FD169A4FF0000B103AD1
:103C20000292CDF810B0029B002B57DD05F1100376
:103C300003EB0B0913F80B30052B1CD004D8012B18
:103C40000DD0032B1ED03EE0222B2AD0232B3AD1BD
:103C500050462946169A4B4602F0B2FD33E008ABB7
:103C60002A780598009341464B4600F0F7FD00285E
:103C7000049028DA5BE0504629784A4600F04FFE6F
:103C800008BB54E0504629784A4600F065FE0028FB
:103C90004DD0D9F804301BBAABB19F4228BF1F46A4
:103CA00011E02878494602F0B1FC00283FD0B9F86D
:103CB00006305BBA9BB233B13C22B7FBF2F18B42C8
:103CC00001D202FB03F799F80130029A0BEBC30B08
:103CD000A2EBC3021FFA8BFB0292A4E708AA049B83
:103CE00050460399FFF71EFCB4F89231DA071ED54F
:103CF00004F5D87007EB470703F008FA0025042FF6
:103D00008CBFB9080121304684F8975102F054FB6A
:103D10003346B6F91A002946324600F02BFBB4F8B8
:103D200092319B0703D520460121FFF7DEF90DB044
:103D3000BDE8F08F000080FE1401002040420F001B
:103D4000F0B5437E8BB003F00703022B064601D08B
:103D5000052B79D196F8B020012A70D9022B11D108
:103D60004FF080730893FF238DF82430737B40F26B
:103D7000FF248DF82530F3890025CDE90645ADF8FF
:103D800026300BE006AB96E8030083E8030006F15B
:103D9000080393E803000AAB03E90300748B013ABC
:103DA00086F8B02024BB294B03AD28460494059324
:103DB000FDF74CF80746BC4208D035F91400002145
:103DC000324606AB00F0D6FA0134F4E706F13804C7
:103DD000204603F09BF91E4B40F21222B3F900304B
:103DE0008DE8440004AA204606CA03F071F92BE0CE
:103DF00020B2FFF763F90446324606AB002104F512
:103E0000C475B6F91A0000F0B5FA06F1380728466D
:103E1000FCF748FC384603F079F90D4B40F21222CA
:103E2000B3F900308DE8440004F5D474384694E8C2
:103E3000060003F04DF92846FCF760FC04E0B6F9F3
:103E40001A003146FEF762FF0BB0F0BD40420F0092
:103E500058430020437E03F00703042B03D0072BB5
:103E600004D1032100E0052100F0E0BA7047000012
:103E7000F7B500F5C4770446124D3846FCF712FC3E
:103E800020461149FFF7B2FB68462A46002103F09D
:103E9000FBF89DE8030004F5D47383E80300D4F82D
:103EA000AC210146B2FBF5F305FB13251944384656
:103EB000C4F8A811C4F8AC5103B0BDE8F040FCF759
:103EC0001DBC00BF40420F0080C3C90110B503787C
:103ED0000446FF2B15D00846182387210022FEF741
:103EE0003BFA002370B181680B714B718B71CB7100
:103EF000226863688A60CB60A268E3680A614B61EC
:103F000010BD002010BD70B50B780646FF2B0D4686
:103F100017D01046182388210022FEF71DFA00232F
:103F200080B1846826F01F062671E371A371637166
:103F30002A686B68A260E360AA68EB68226163612B
:103F400070BD002070BD08B5852100220823FEF752
:103F500003FA28B1836800221A715A719A71DA71D2
:103F600008BDCB1D002110B50446104603F0F80231
:103F70000B46FDF785F820B183681C70C268D20833
:103F80005A7010BDF8B50F461546911C1A46FFF73A
:103F9000E8FF044660B18668C26802360021023A32
:103FA000304604F0B1F8304639462A4604F0A3F80A
:103FB0002046F8BD30B505460C4613462946224634
:103FC0000120BDE83040FFF7DDBF30B505460C46A7
:103FD0001346294622460220BDE83040FFF7D2BFF3
:103FE0002DE9F04180460F4616461D46079886216A
:103FF00000221023FEF7B0F960B1069B846827F019
:104000003F0776BA2DBA1BBA84F804806771E68040
:10401000A560E360BDE8F0812DE9E04306468846EF
:10402000174603202021079A9946FFF79AFF054675
:1040300028B38068002328F03F083FBA99FA89F92D
:10404000867080F803804760C0F80890037343735C
:104050008373C373037443748374C37403754375A8
:104060008375C375037643768376C3760377437788
:104070008377C37706991030324602F011FD284647
:10408000BDE8E08310B50A46044608210520FFF785
:1040900068FF28B18368002224BA9A70DA705C60E5
:1040A00010BD0268436852EA030107D18268C36801
:1040B00052EA030114BF002001207047002070471E
:1040C00030B5022385B000930C46002205210DF186
:1040D0000E030546FCF775FE002803DBBDF80E3025
:1040E000062B13D8082300932846022100222346DA
:1040F000FCF767FE002802DBADF80E0002E00023AB
:10410000ADF80E30BDF80E0005B030BD08230093A9
:104110002846032100222346FCF753FE0628E1DD52
:10412000EAE773B51446102206460092084619467F
:104130002346FCF793FD0546B8B18368FF220020B3
:10414000DA71014608224FF0FF33FCF799FF002295
:10415000044658B183681A705A705A719A711A716C
:104160005A8083685E80456004E004E06860284609
:10417000FDF766F8204602B070BD00002DE9F34758
:104180008146084688469246FFF78BFF78BBD8F8F1
:104190000450D8F800402EBA174D27BA0024AF4279
:1041A00008BFA6420BD098F80030FF2B08D198F832
:1041B000010000F00F00821E5042504100E001203B
:1041C00010F0010013D198F81010CB0710D498F814
:1041D00011008DE8000501F0C001D8F81420D8F8CE
:1041E0001830FFF719FFC9F80000012000E0002097
:1041F00002B0BDE8F08700BF000080FE38B50020A7
:10420000FEF7BCFD044658B1637E03F00703013B93
:10421000012B03D90A4B00221A600EE02046EFE77B
:10422000074D2868FEF7AAFD034618B9FEF7A6FD5C
:10423000034610B12B60184638BD204638BD00BF7C
:10424000E44E00202DE9FF470C9E89469A468046A1
:104250001446FEF733FFB0F89231990701D40027D6
:1042600007E04046FEF72AFFB0F892315A07F6D52C
:1042700080272046FFF715FFA8B14FF0FF332370CA
:104280000223002563700123A570E5702571657117
:10429000A571E57125726572A572E5722573657366
:1042A000A573E37301E047F04007BAF1000F0CD0AB
:1042B00002A94046FFF704FF014630B102A8C9B287
:1042C0003246FFF782FE70B106462EB199F81030E3
:1042D000DB0758BF47F02007384649463246FFF70C
:1042E00012FE074608B930463AE0404639462246B3
:1042F0000023FFF716FF054638468DB399F81030B6
:104300001A4F13F0010F23D002F068FE184E214619
:10431000B0FBF6F909FB16094046FEF7BDFC002389
:104320000293B9FBF6F306FB139600F15404204602
:10433000039602F0EBFE40F20222B7F900308DE85E
:104340002400204604AC14E9060002F0C1FE09E096
:10435000B7F900002946FCF718FD002802DC2846C2
:10436000FCF76EFF04B0BDE8F08700BF58430020A3
:1043700040420F002DE9FF4707460D4690469946FB
:10438000FEF79CFE82462DB938464146FEF74EFFA9
:10439000054668B1384602A9FFF792FE064650B1BD
:1043A00002A8F1B20022FFF705FE044620B935E06D
:1043B0000646044600E00446BAF89231DB0714D5FD
:1043C000082E0AD0082300933846032100226B44AC
:1043D000FCF7F7FC80B208281FD100200F2102AAA9
:1043E000234602F00DF8C0B1044640462146FFF7CF
:1043F0006DFD064688B1384631464A462B46FFF7E2
:1044000090FE044608B9304608E0074B2146B3F950
:104410000000FCF7BAFC002802DC2046FCF710FF85
:1044200004B0BDE8F08700BF58430020F0B5052276
:1044300085B00292427E002622F007020A43052937
:1044400004460396427621D0072902D004294AD196
:1044500009E0B0F91A00FEF731FE04AB00F5D070A8
:1044600003C803E9030004F13805284602F04EFEB4
:104470001E4B40F21722B3F900308DE8140004AC53
:10448000284614E9060002F023FE2CE0B0F91A00D9
:10449000FEF714FE032305463146224605F5C47691
:1044A00084F8B030B4F91A002346FFF763FF04F133
:1044B00038073046FCF7F6F8384602F027FE0B4B7B
:1044C00040F21222B3F900308DE8140005F5D475DE
:1044D000384695E8060002F0FBFD304605B0BDE821
:1044E000F040FCF70BB905B0F0BD00BF5843002009
:1044F0002DE9F04186B002AD07460C46102200219E
:10450000284603F001FE002C08BF2C46FF238DF83F
:1045100008303846022321468DF809308DF81730CF
:10452000FEF784FE064678B169463846FFF7C8FDB7
:10453000014638B16846C9B20022FFF73BFD054687
:1045400018B91CE0054600E005462846FFF7FBFCCD
:10455000804608B9284612E022463846414633468E
:10456000FFF7DFFD044608B9404608E0064B214648
:10457000B3F90000FCF709FC002802DC2046FCF738
:104580005FFE06B0BDE8F081584300202DE9F04FF2
:104590008FB00AAC8146174620461022884600217B
:1045A000059303F0B1FDFF238DF8283002238DF829
:1045B0002930484601238DF83730FEF77FFD00F59E
:1045C000C47605463046002F08BF2746FCF76AF838
:1045D000B5F8924114F0010437D1AA46A3462B4600
:1045E00000225A4513DA9AF81100597C88420BD1FF
:1045F000194650460492039302F02EFA9AF81110CD
:10460000049A8142039B12D901323833E9E708A8A2
:1046100051462246FFF7B2FD48B1089B33B9204608
:104620000393FCF70DFE039B1C4607E01C460BF1B1
:10463000010BBBF1070F0AF1380AD0D10794002C07
:104640005CD13046FCF75AF8FEE002F063F883468E
:10465000002852D084694FF0000A002C35D06368DE
:10466000AB421FD1DBF81830A34212D0A268996880
:1046700092F811E0487C864509D1104604920393D4
:1046800002F0EAF9049A039B527C82420AD91B6821
:10469000EAE707A899685246FFF770FD10B1079B3B
:1046A0004BB39A462468D8E7E0B200F001FC034619
:1046B000597C007C5A8ACDF800A002F071F907906D
:1046C000C8B182460134102C0AD00BEBD4039A7D7A
:1046D000012104F0070301FA03F31A42F2D0E3E7E1
:1046E000DBF81000BBF814105A46534602F07FF96D
:1046F0000446079010B95046A4E00446B5F892313C
:104700001B0707D5B5F894012146FFF7BBFC0790BE
:10471000F0B10446B8F1000F0DD13046FBF7EEFFC3
:1047200048463946FEF782FD80463046FBF7BAFF21
:10473000B8F1000F11D008A94846FFF7C1FC0146A7
:1047400058B108A8C9B22246FFF734FC079018B93F
:104750003046FBF7D3FF60E00446B5F892C10CF099
:10476000100B1FFA8BF313B195F896B100E09B463E
:104770000CF0200A1FFA8AF3CBB1D5F8A031D5F896
:10478000A401334A0021E2FB03014FF47A720023B3
:10479000CDF810C003F09AF92E4A00238B4208BFCF
:1047A000824238BF1046DDF810C0824600E09A46CB
:1047B0000CF040039BB2ABB1D5F8A831244AD5F830
:1047C000AC010021E2FB03014FF47A72002303F0F5
:1047D0007DF94FF0FF3200238B4208BF824238BF81
:1047E00010460346059A12B9B5F8982100E0002258
:1047F000304604920393FBF781FFB5F89211039BB7
:1048000001F440418DE818005846090A049A5346BD
:10481000FFF7E6FB0546079008B9204612E0294657
:1048200048463A464346FFF77CFC0146079008B9E4
:10483000284607E0084BB3F90000FCF7A6FA002869
:1048400002DC0798FCF7FCFC0FB0BDE8F08F00BF5E
:1048500040420F0080EE3600584300202DE9F04121
:104860005E78044617461D4603F1020826B301F19F
:104870000800FFF716FCF8B944B194F91030013381
:1048800002D1A3681C7801E06468F5E7853F022F38
:1048900016D84CB905EBD6036FF00104641B1C4419
:1048A00013F8012D002AF7D006984146224603F05E
:1048B00022FC2046BDE8F0816FF01500BDE8F081D4
:1048C0006FF08500BDE8F081F8B55E7805461446C6
:1048D0001F460EB301F10800FFF7E3FBE0B9882C97
:1048E0001CD1B91C4DB195F91030013303D1AB681F
:1048F0001C785CB901E06D68F4E7F408023CE4B2AE
:104900000B1913F8013C0BB9013CF8E70698224655
:1049100003F0F1FB2046F8BD6FF01500F8BDF8B5C7
:1049200015460E46FEF7CAFB6C780746012C0ED1E1
:10493000862E0ED100F5C4763046FBF7B3FE6B68C9
:1049400030461BBAA7F89431FBF7D8FE01E00020EF
:10495000F8BD2046F8BD00002DE9F043537887B03C
:10496000042B8146904640F0908086295ED155699F
:1049700014692EBA474D27BA0024AF4208BFA64299
:1049800009D0137CFF2B08D1557C05F00F05AA1E1A
:104990005542554102E0012500E00025002D45D19A
:1049A0004846FEF78BFBB0F89231DB0703D598F948
:1049B0000330002B3ADB08F1100648463146FEF77B
:1049C000D7FB044620B1427C98F802309A4225D0A9
:1049D000D8F8043013B30823009348460721002277
:1049E00004ABFCF7EEF9002850DB02A8314698F83A
:1049F000022002F055F898F80330484602A998F8CA
:104A0000022003F0C003FEF777FB044600283DD0E8
:104A10004846FEF753FB012101F042FED8F804306E
:104A200033B91CB148462146FEF790FB01252DE025
:104A30001BBA6361D8F8083004F11C061BBAA361E5
:104A4000304602F063FB6369013313D0D8F80410D9
:104A500002AD284609BA002202F016FB0E4B40F2C6
:104A600011221B888DE81400304695E806001BB221
:104A700002F02EFB237C03F0BF03237498F803207D
:104A800022F03F0213432374D0E70025284607B0E5
:104A9000BDE8F083000080FE1401002030B595B021
:104AA0000446082104A8FDF7E7FA204B188880B2D5
:104AB000208100B2FCF7B8F923681D495B682046E5
:104AC00098476846FDF7D4FABDF8023040F202225A
:104AD000934214D008D8B3F5807FF2D123682046E2
:104AE0005B6901999847ECE740F2032293420BD0AF
:104AF000B3F5017FE5D12268019BD56807E0236803
:104B000020461B680199DBE72268019B156919782B
:104B10005A6820461B89A84740F20523039002A942
:104B20006846ADF80A30FDF779FACAE714010020AB
:104B3000354B0008022810B50C460DD191F9100034
:104B400040F2012205492346FCF7F5F820B920463A
:104B5000BDE81040FCF774BB10BD00BF0000FFFFB4
:104B600030B585B0089C74B1256865B1084D0293D5
:104B7000009508230194FBF72FFE4FF6EA730028F7
:104B8000D8BF184601E04FF6ED7000B205B030BD59
:104B90009D4A0008884210B5044608BF446808D002
:104BA00023465A682AB18A4201D01346F9E74A6877
:104BB0005A60002308464B60FCF742FB204610BDBC
:104BC0002DE9F0419AB008210AA8FDF755FA7E4B6D
:104BD000012008937D4B07A91B88ADF82430FCF712
:104BE0003FF940F20523ADF80E3001A8FDF740FA79
:104BF000BDF80630B3F5017F0DD840F20322934291
:104C000080F0838040F2012293420CD040F20222D5
:104C100093421BD0E9E740F225229342E5D1029866
:104C200000F034FAE1E7029D2846FCF729FB044630
:104C300060B3054695F91080B8F1010F6DD06D682D
:104C4000002DF7D12046FCF7FBFACEE7029DEDB12F
:104C5000EB68072B1AD96B68C3B193F91030022B9C
:104C600014D12846FCF70CFB044678B1876800266F
:104C7000B7F9020001F0E6FE8046606818B1C2682C
:104C800040681644FAE7B8F1000F01D12846DAE788
:104C900098F8042022B1204600F0D8FF68B9D1E787
:104CA000012201461346FCF7EBF90028CAD06268DE
:104CB00042606060836841221A70626800231AB102
:104CC000D16852680B44FAE7B8F802108B4207D853
:104CD000B7F902002146FCF758F8002885DCB1E757
:104CE0003B4B59680029ADD1B6F5006FAAD279883F
:104CF00005A89A8140F2252219805C609E60ADF87B
:104D000016200693FDF70AF96FE76FF0850301A8F7
:104D100003A90493FDF782F967E7EB68002B91D0B4
:104D2000AB681B78412B11D12846FCF7A9FA054640
:104D3000002887D041464246FCF7BEF901460028CC
:104D400080D02046FFF726FF04462CE003F0D8076A
:104D5000B7F1C002574257411FB1204600F088FA10
:104D600043E703F0E003602B7FF46CAF384639462D
:104D700028220223FCF784F9064600283FF462AF9C
:104D800021463A463B4600F09BFC0146B8B120461E
:104D90004246FCF791F9014688B12046FFF7FAFE3A
:104DA00063687360666002202874074940F201223C
:104DB0002346FBF7C0FF00287FF417AF42E73046D9
:104DC000FCF73EFA3EE700BF0000FFFF14010020A1
:104DD000E84E00201FB50B4C208803B2002B0DDCE1
:104DE000094B0A48009300230193094B4FF480615B
:104DF000029303220823FBF7EFFC208000B204B0EB
:104E000010BD00BFF8520020C14B0008F84E002032
:104E1000DE8F00080F4B37B5142404FB0034103428
:104E2000638805466BB1684602F032F9009B3C226C
:104E3000B3FBF2F3084A52F82520934206D300232D
:104E40006380637823F01003637001E0D31A6380FA
:104E500003B030BDFA5200203C5400202DE9F0414F
:104E600080461148FBF71EFC0024104D26462746BD
:104E7000E0B2FFF7CFFF2B7C53B12846414601F04B
:104E8000EBFD2A7C824203D8B84284BF2E460746F7
:104E90000134102C05F11405EAD10348FBF72EFC70
:104EA0003046BDE8F08100BF7C540020FA5200205B
:104EB0000F2838B5044614D80B48FBF7F3FB2046FF
:104EC000FFF7A8FF094B142000FB0434257C06489B
:104ED0001DB1FBF713FC204638BDFBF70FFC28463D
:104EE00038BD002038BD00BF7C540020FA5200209D
:104EF0002DE9F7460F2882460F46144699469DF83D
:104F000028505CD8002A5CD03048FBF7CBFB3049F6
:104F1000142303FB0A13B9F1000F08BF0025802CEE
:104F200088BF8022A3F812908CBF1A741C7415B12C
:104F30004AF0100300E05346142000FB0AF00E185C
:104F40007374326873683C687D68AB4208BFA242E4
:104F50000AD1F368B268BC68FD68AB4208BFA242E0
:104F600014BF0023012300E00023C3B9184A1354DF
:104F70007370B370F37033717371B371F371337213
:104F80007372B372F37233737373B373F373142363
:104F900003FB0A13304639461A7C01F081FD68464E
:104FA00002F076F8009B3C22B3FBF2F3094A4B4433
:104FB000064842F82A30FBF7A1FB304602E0002009
:104FC00000E0104603B0BDE8F08600BF7C5400202E
:104FD000FA5200203C5400202DE9F84F077846781B
:104FE00007F108080546914600F1080B8044BA19FC
:104FF000002008328A464FF0FF330146FCF740F8A4
:105000000022044618B383681F705E705A805A717C
:105010009A711A71BBF1000F08D03FB18068027815
:10502000BA4203D10830594603F065F8B8F1000FD1
:1050300010D07EB1A3685A78B2420BD1187841469D
:1050400008301844324603F056F803E06560204605
:10505000BDE8F88F6A88A36800205A802A79014643
:105060001A716A795A71AA799A71CA4534BF52463F
:105070004A460123FCF704F805460028E6D12046FD
:10508000FCF7DEF82846BDE8F88F00002DE9F04F68
:10509000044685B0B0F9000001F0D4FC6368804696
:1050A0005E6800251EB1F26876681544FAE7A789A4
:1050B000002F52D1DFF8B4A1D4F808C0BAF800200C
:1050C000B8F802900132AAF80020C5EB0C0292B2A7
:1050D000A9F10409914409F0F809C2EB09091FFA82
:1050E00089F99868294609F104020193CDF800C0B6
:1050F000FFF772FF019B0746DDF800C0002846D08D
:1051000042689CFA9CFC9268A2F800C0117802F1F7
:10511000040B61F03F011170BAF8001049BA5180D8
:105120005D688DB1EB68C6EB090A9A4528BF9A46BF
:105130000BEB06005644A9685246B6B202F0DBFFFC
:105140004E4501D26D68ECE7B8F900003946FBF72F
:105150001CFE002872DC38466EE0AF427ED2B8F802
:1051600002B0D4F808C0ABF1050B0BF0F80BC7F197
:105170000501986829440BF105020193CDF800C0A0
:10518000FFF72AFF019B8246DDF800C028B960685E
:10519000FCF756F80023636064E042689CFA9CF1D7
:1051A0009268BC4411801178C5EB0C0561F01F01B9
:1051B00011702E49ED080988157149BA51805D6852
:1051C00002F10509D5B1BE4216D0EA68B3189BB208
:1051D000BB420ED9BF1BBFB2A968D61B5E4528BF14
:1051E0005E4632464846394402F085FFB6B26D68E5
:1051F00005E06D681E46E5E7002600E02E465E45A8
:1052000012D28DB1EB68C6EB0B079F4228BF1F4639
:1052100009EB06003E44A9683A46B6B202F06BFFBD
:105220005E4501D06D68ECE7B8F900005146FBF728
:10523000ACFD002802DC5046FCF702F8002EA6D098
:10524000A38902A81E44A68140F22523ADF80A30A6
:105250000394FCF763FEFBF7A5FA03E01846FBF79F
:10526000EFFF666005B0BDE8F08F00BF84540020FA
:1052700010B543680446996883681A7802F0F8020A
:10528000C02A06D0E02A0CD11B79C268DB00053A9F
:1052900002E0C2680023043A0846214600F010F8F4
:1052A0002046BDE81040FBF7CBBF036833B1196857
:1052B00000229A80DA801A600160F6E74360704746
:1052C0002DE9F04F8BB0064608A8059115461F46FC
:1052D000D1F8088001F0DCFE7B4C4FF0000904F1AE
:1052E000900A206808B36368089AD21A032A05D97D
:1052F000FBF7A6FF201FFFF7D8FF08E0B9F1000F6A
:1053000003D0D9F80820934201D2A4F1040924342F
:105310005445E6D1B9F1000F07D0D9F8040020B107
:10532000FBF78EFF4846FFF7C0FF96F8009006F1A6
:10533000080109F10803F3180493B8F8003008A82D
:105340005BBAC3F30A030393B8F8023002915BBA65
:10535000ADF81A309BB2079396F801A0002401F033
:1053600097FE5A4BA34653F8082C22B3D2680399F0
:105370008A4220D15A8A07998A421CD11A7C4A450E
:1053800019D15A7C524516D1184602994A460193C2
:1053900002F0A2FE019B70B903F108000499524685
:1053A00002F09AFE019B30B9494B242404FB0B34D4
:1053B000089BA36035E024B953F8082C0AB9A3F17F
:1053C0000C040BF1010BBBF1040F03F12403CAD150
:1053D000002C00F0F58000200146039A0123FBF722
:1053E0004FFE6060002800F0EB80816800220023FF
:1053F000C1E90023089B0299A3604A4604F10C000E
:1054000002F079FE04F114000499524602F073FE92
:10541000BDF81A3084F81C90E383002384F81DA0A3
:105420002384002C00F0CC80D4F80090E7B998F8E1
:105430000430412B03D108F10508013D19E003F0C8
:10544000E003602B08F1040813D160680599C26875
:10545000042300F035F9002800F0AC8028358044A2
:105460002D1A4FF0280C05E008F105084FF0000C4C
:1054700000E0BC466068EA19C3689A4200F29B806B
:10548000BBB2591E294489B2B9F1000F27D0B9F82F
:1054900004209A4203D2B9F806A09A450BD293424F
:1054A00001D28A4207D99A4207D1B9F806305A1A6E
:1054B0005342534102E0012300E00023002B7AD144
:1054C000D9F80090DCE700BF8C54002094540020F1
:1054D0008854002009F10109B9F1280F18D03A4A7F
:1054E00002EBC902B2F806A0BAF1000FF2D17AB10C
:1054F00093802368D18013602260238C80682B44C2
:105500006744238438444146CCEB050202F0F3FDA6
:105510006368228CDB689A4252D194F81C80677FC2
:10552000002008EB0702014608324FF0FF33FBF77B
:10553000A7FD054600283DD08368002283F800803F
:105540005F705A805A719A711A71B8F1000F08D0C1
:1055500080680278424504D1083004F10C0102F061
:10556000CAFD5FB1AB685A78BA4207D1187804F126
:105570001401083018443A4602F0BDFD7288AB6849
:105580005A8032791A71B2799A7172795A710023FC
:105590006B6063682BB15A680AB11346FBE75D6024
:1055A00000E065600220094940F201226368FBF7D0
:1055B000C2FB10B96068FBF743FE2046FFF775FE9B
:1055C0000BB0BDE8F08F00BF185500200000FFFFB2
:1055D0000023042A10B54370037016D0082A02D0A5
:1055E000022A26D118E00B7883F0020303704B786F
:1055F00043708B788370CB78C3700B7903714B79D0
:1056000043718B798371CB7911E00B7883F00203BE
:1056100003704B7843700223FF240022C470FE24E1
:10562000827004714271CA5C0B4482715B78C371F1
:1056300010BD184610BD037823F00F0343EA111381
:105640000370437803F00F0343EA01114170704780
:1056500073B51646194A04460D46106851686B46E4
:1056600003C32CB3637CDB0624D4237C802B1DD0A6
:10567000402B1FD9DA08501CD11F28443144C2F1F5
:105680000F0202F029FDA8B9237CDA08164416F8A7
:10569000081CAA5C03F007034A4002A90B4413F854
:1056A000083C1A4214BF0020012004E0012002E05F
:1056B000204600E0002002B070BD00BFE28F00086D
:1056C0002DE9F74FD1F808B01F464B680BEB0706E2
:1056D000D3F808A0846896F901308846002B237817
:1056E000B4BF0325022503F00F0343F060032370CA
:1056F0001BF80730914603F01803082B24D014D868
:10570000002B4CD1715D2046FFF795FF73195A7835
:10571000617802F00F020A4362709978A378EA1C5C
:105720000B43A370B25C043525E0102B26D0182B58
:1057300035D120460021FFF77EFF637823F00F0369
:1057400063700023A37029E0735D72199B099B00AD
:1057500043F060032370637803F00F036370715D9F
:1057600001F00F010B4363705178A278AB1C0A4320
:10577000A270F25C0335E37813430FE06A1C715D9D
:1057800020460192FFF757FF637823F00F03637001
:105790000023A370E370019A154600E0E3701BF844
:1057A00007305B0702D4735D0135A3711BF8073026
:1057B00003F00303022B07D0032B07D0012B06D0E5
:1057C000735D0135E37103E0402300E0FF23E371E3
:1057D000737803F0400202F0FF076AB118064ABF6F
:1057E000B0780020000913F0300705D0FFF760FB08
:1057F0000746002800F02682737803F07003302BF0
:105800006AD00ED8102B37D0202B49D0002B40F077
:105810009F80711904F10800102202F06CFC103511
:1058200096E0502B6ED014D8402B40F0918000238E
:1058300023726372A372E37223736373A373E373BC
:1058400023746374A374E37423756375A375E3759C
:105850007EE0602B64D0702B7AD10AF108019AF8AF
:10586000002004F11000FFF7B3FE04F108003946F0
:105870003A7C01F015F96BE06FF00102002322720F
:105880006FF07F026272A372E37223736373A37378
:10589000E37304F110007119082202F02CFC3DE0C2
:1058A0006FF07F0100236FF0010261724FF0FF3152
:1058B0002272E1742275A372E37223736373A3737C
:1058C000E37323746374A374637504F11600711990
:1058D000022202F010FC3AE09AF8002004F11000D5
:1058E0000AF10801FFF774FE6FF001020023227233
:1058F0006FF07F026272A372E37223736373A37308
:10590000E37325E07119082204F1100002F0F3FBA3
:1059100004F1080039463A7C01F0C2F8083517E076
:105920004FF0FF320023E2746FF00102227571190B
:10593000022223746374A374637504F1160002F0E9
:10594000DAFB04F1080039463A7C01F0A9F8023587
:10595000737859070DD51A064ABFB078002000F0B9
:105960000F009B0705D0FFF7A3FA0746002800F0B9
:105970006981737803F00F030C2B00F26381DFE879
:1059800013F00D00150029004B0061016300710048
:1059900090000D00A100CE00F7001701711904F16D
:1059A0001800102202F0A7FB10353AE16FF0010257
:1059B000002322766FF07F026276A376E376237768
:1059C0006377A377E37704F120007119082202F0CE
:1059D00092FB45E06FF07F0100236FF001026176DA
:1059E0004FF0FF31227684F8231084F82420A37628
:1059F000E37623776377A377E37784F8203084F81E
:105A0000213084F8223084F8253004F12600711901
:105A1000022202F070FB42E09AF800109AF801208E
:105A2000083104F120005144FFF7D2FD6FF001026C
:105A3000002322766FF07F026276A376E3762377E7
:105A40006377A377E377ECE07119082204F1200073
:105A500002F051FB04F1180039463A7C01F020F8BD
:105A60000835DEE04FF0FF32002384F823206FF08A
:105A7000010284F824207119022284F8203084F86D
:105A8000213084F8223084F8253004F1260002F019
:105A900032FB04F1180039463A7C01F001F8023576
:105AA000BFE09AF800109AF801200831514404F13F
:105AB0002000FFF78DFD04F1180039463A7C00F014
:105AC000EFFFAEE00023637684F8233084F82430BF
:105AD00084F8253084F82630A376E376237763773D
