:020000040800F2
:10000000B05A002065040008D1040008E10400088B
:10001000ED040008FD0400080D05000800000000C4
:10002000000000000000000000000000470400087D
:100030001D0500080000000035040008AF0100089D
:10004000AF010008AF010008AF010008AF010008D0
:10005000AF010008AF010008D90B0008D90B000858
:10006000D90B0008D90B0008D90B0008AF01000814
:10007000AF010008AF010008AF010008AF010008A0
:10008000AF010008AF010008AF010008AF01000890
:10009000AF010008AF010008AF010008D90B00084C
:1000A000AF010008AF010008AF010008AF01000870
:1000B000F16A0008AF010008016B0008AF010008F9
:1000C000AF010008AF010008AF010008AF01000850
:1000D000AF010008A10A0008AF010008AF01000845
:1000E000D90B0008AF010008AF010008AF010008FC
:1000F000AF010008AF010008AF010008AF01000820
:10010000AF010008AF010008AF010008AF0100080F
:10011000AF010008AF010008AF010008AF010008FF
:10012000AF010008AF010008AF010008AF010008EF
:1001300000F012BA70B50E46054600F006F9094BFC
:10014000094A1C68A119914202D8084A914204D276
:100150000C232B604FF0FF3400E0196000F0FDF835
:10016000204670BD0000002000000120B05A002091
:100170001046194600F004BA1046194600F012BAAB
:10018000132303604FF0FF307047132303604FF0D9
:10019000FF307047132303604FF0FF307047022990
:1001A0004FF0000303608CBF00200120704700F077
:1001B000BDB908B900F0D8B84FF0FF307047000063
:1001C000114B70B500251D60104B114E1868346836
:1001D00000F090F80F4B53F82030A3F10C0294423A
:1001E0000FD024B1A188062904BF0721A1800621D0
:1001F00023F8081C33F8061C074B326019800120D5
:1002000070BD284670BD00BF8C000020600100203A
:10021000180100201C01002014010020052970B5E0
:10022000838804460D4611D9052B25D8134B008928
:1002300004F10C0103EB800000F064F82289012135
:1002400091400F4B1A680A431A6015E0052B13D929
:100250000A4E008904F10C0106EB800000F067F8FB
:10026000228956F822303BB9012101FA02F2044BEF
:10027000196821EA02011960A58070BD1C010020E7
:100280006001002008B50A4B1B681A899B88052B62
:1002900001D982420AD900F063F818B1054B012256
:1002A0001A6008BDBDE8084000F0BCB808BD00BF3A
:1002B000180100208C00002008B500F046F8094B1A
:1002C00000241A88084B12B243F82240074B084D0D
:1002D0001A682868013A21461A60FFF79FFF2C60D0
:1002E00000F09AF814010020900000205C0100202A
:1002F000180100200023C20702D440080133FAE7A6
:1003000018467047036873B10B6003685B684B6005
:1003100003685B6819600368596002685368934218
:1003200004D15960704701600960496070470B68EB
:100330008B4207D04A6813600B685A60026891428A
:1003400002D100E0002303607047EFF3108072B623
:10035000704762B6EFF31080704780F310887047E3
:10036000EFF30580C0B2704707B501460B4808F0AF
:100370002BF90B4B0193019B5A1E0192002BFAD1D2
:10038000BFF34F8F074A084BD16801F4E0610B437C
:10039000D360BFF34F8F00BFFDE700BF1E9300087F
:1003A000A086010000ED00E00400FA05134423F0EC
:1003B000030310B54FF077321C1F43F8042C62077B
:1003C00005D54FF08832A3F1080443F8082C4FF00C
:1003D000807304E909000F4B224644F80C3C0023CB
:1003E00044F8103C032344F8143C022344F8183C1E
:1003F000012344F81C3C42F8201D0B2342F8043D25
:10040000013B032BFAD120466FF0020340F8443D34
:1004100010BD00BFB9020008FFF79BFF01DFFFF727
:10042000FEBF0000024B5A6842F080525A6070478B
:1004300000ED00E0EFF3098020E9F00F40F804ED53
:10044000064909680860FFF7BBFE044800680168B8
:1004500001C9B1E8F00F81F30988004718010020B5
:100460007047704708B5FFF7FBFF6A46114B934290
:1004700003D2114943F8041BF9E700230F4A10493E
:100480009818884204D20F49595899500433F5E717
:100490000D4B0E4A934203D2002243F8042BF8E797
:1004A000FFF7DFFF00F08CF808F048F8BDE80840DF
:1004B00000F0BEB8B0580020FEE7FEE700000020C4
:1004C0008C000020749500088C000020AC5800209F
:1004D00008B50420014900F031F900BF3A93000843
:1004E0000520014900F02AF94693000808B50620C6
:1004F000014900F023F900BF5993000808B507200F
:10050000014900F01BF900BF6C93000808B50820F2
:10051000014900F013F900BF7E93000808B50920D7
:10052000014900F00BF900BF9293000808B50A20BA
:10053000014900F003F900BFA493000808B504487E
:1005400000F081FBBDE80840024800F0D7B800BFCA
:1005500004000020A401002007B5064800F0A2F81E
:10056000002000900449054A034600F065FA03B0F4
:100570005DF804FBA401002020A107003D05000850
:1005800038B505460C4605482946224600F046FB8C
:1005900018B9034800F086F8F5E738BD04000020DC
:1005A000A401002070B504460D464618B44205D09B
:1005B00014F8011B002000F065FAF7E7284670BD2B
:1005C00008B500F089F90C4B4FF440119A6942F0DC
:1005D00008029A61094A11609A69094942F01002B9
:1005E0009A614FF440724A60996941F02001996123
:1005F000A3F57C431A6008BD00100240000C0140C6
:100600000010014008B500F06FFC034807F0DCFF64
:1006100000F096FB002008BDB293000808B5034B1C
:1006200001201B6800F0B6F9F9E700BFAC18002004
:100630001FB5FFF78AFE0E4B002400930D4B01946B
:100640001B684FF4807102930F220C230A4800F0BC
:10065000C3F80A4B4FF4B0518DE81800084B07223D
:100660001B68084802930C2300F0B6F8FFF7D4FE8D
:100670001D06000814000020AC010020050600083B
:1006800018000020AC02002010B50446216839B9DA
:100690002046012200F010F90028F7D0012010BDFB
:1006A000002010BDF0B585B00546FFF7EDFF00BB9B
:1006B000FFF74BFE04462846FFF7E6FF064618B153
:1006C0002046FFF74AFE14E00B4F02213868FFF77F
:1006D000A5FD3B6804A91A8941F80C6D92B2281D4A
:1006E0000292039300F04EF82046FFF736FEFFF724
:1006F00099FE05B0F0BD00BF1801002038B50446D2
:10070000FFF723FE236805462BB1201D00F034F8C7
:1007100028B920602846BDE83840FFF71EBE84682F
:1007200007212046FFF77AFD24892846FFF715FEAA
:100730002046BDE83840FFF7A5BD000008B50B4BCB
:100740000C461A6852B9012209481A6007F0B4FF32
:10075000204607F0B1FF074807F0AEFFFFF7F5FDB1
:1007600000F0B9F80020FFF724FD00BFB01800200A
:10077000159400082B94000803680BB11A680260F6
:100780001846704710B5036843B15C684A689442E4
:1007900002D90B60016010BD1846F4E701600B60E0
:1007A00010BD000008B5FFF7D0FD094B1B689A8803
:1007B000052A06D91A89074B53F82210096843F80D
:1007C0002210FFF7CAFDBDE80840FFF72BBE00BFAF
:1007D000180100201C0100200F2A2DE9F74F0646C2
:1007E0000C4692469B4619D810F0030303D0C3F180
:1007F00004031E44CC1AFFF7A8FD012780462C4BAA
:100800001FFA87F953F8275075B10137212FF6D118
:100810004046FFF7A2FD4FF6757001E04FF6EA7013
:1008200000B203B0BDE8F08FA4F12C0C2CF0030C47
:1008300006EB0C0443F8274032466346A4F80690C2
:100840000C980D99CDF804C0FFF7B0FDDDF804C099
:100850004FF0FF3346F80C006362164B1BF0010F9C
:100860001A68A4F808A002F10102A580E5602561DC
:100870006561A561E5612562A5621A6004D0204624
:100880000121FFF7CBFC0DE020460721FFF7C6FC56
:100890001BF0040F06D14046FFF75FFD5046FFF7FF
:1008A000F1FC02E04046FFF758FD4846B8E700BFBC
:1008B000900000205C01002050E8003F8B4203D0F4
:1008C000BFF32F8F0020704740E80023D3F10100D1
:1008D00038BF00207047704708B500F0D9FC2A4B9C
:1008E0001A6842F001021A605968284A0A405A60A0
:1008F0001A6822F0847222F480321A601A6822F494
:1009000080221A605A6822F4FE025A604FF41F02D5
:100910009A601A6842F480321A6019681A4A880389
:10092000FBD51B49086840F010000860086820F0FB
:1009300003000860086840F00200086051685160D8
:1009400051685160516841F480615160516821F4EF
:100950007C115160516841F4F8115160116841F007
:10096000807111601968084A8901FBD5516821F02E
:1009700003015160516841F0020151605A6802F070
:100980000C02082AFAD108BD001002400000FFF056
:100990000020024000207047F8B50C4605460028AC
:1009A0003DD1204B20489A690B2142F480429A6144
:1009B00000F0EEF8042229461C4800F09FF82001C0
:1009C00007F098F801461A4807F0A0F9044600F02D
:1009D00045FA07F0ADFA86B2304607F08FF80146C7
:1009E000204606F0D5FF134C4FF0834107F0DAF8AC
:1009F00000F034FA258107F09BFA278900F00F00F8
:100A0000BFB2074347EA0616B6B22681A389284635
:100A10009BB243F4005343F00C03A381F8BD6FF085
:100A20000100F8BD00100240090801400A08014019
:100A30004054894C0038014070B5044615461E46A6
:100A4000FFF7AAFF002815DB94B90B49102381F8A2
:100A5000253320234B60094920468B899BB243F004
:100A600020038B810649049B81E860008B6070BD88
:100A70006FF0010070BD00BF00E100E000380140F0
:100A8000B418002030B9054B1A881206FBD599809E
:100A9000012070474FF0FF30704700BF0038014021
:100AA00010B5134C2388990606D5124BA1881A68F5
:100AB0009868C9B2904712E023881A0701D5A38825
:100AC0000DE023881B060AD50A4B5A6898689047A0
:100AD00028B9A38923F080031B041B0CA381064BB8
:100AE0001B681BB1BDE81040FFF75CBE10BD00BF26
:100AF00000380140B41800208C000020F0B5C0F38D
:100B00008326023E4FF0040C0CFA06F61F4C20F030
:100B10000F03A76900F00F053E4300F00700A66130
:100B200080000F268640EC1053F82470012927EA34
:100B3000060643F824600DD1624523D1032606FA48
:100B400000F001FA05F553F82420104343F824007F
:100B50005D6115E002F00C0606FA00F053F824106F
:100B600002F0010208430121A94002FA05F543F809
:100B70002400D86820EA0101D960D9680D43DD60FE
:100B80000020F0BD4FF0FF30F0BD00BF001002406C
:100B9000C0F3832230B5023A042505FA02F20D4B68
:100BA0009C6922439A6120F00F03C0F3C00200F059
:100BB000070080000F248440814053F8225025EA2A
:100BC000040443F8224053F822400C4343F82240E7
:100BD00030BD00BF0010024010B500240122A24029
:100BE0000B4B59690A4207D05A610A4B03EBC40206
:100BF000506853F8343098470134102CEED1064B2E
:100C00001B681BB1BDE81040FFF7CCBD10BD00BF95
:100C100000040140C01800208C00002070B513466D
:100C20007BB18568C468A5420BD084680568661CE2
:100C300086604668013B013E34402C5D01F8014B63
:100C4000EEE7D01A70BD30B5C46883684268E31A15
:100C5000934208D0C3680468013A5D1C1340C56024
:100C6000E154002030BD4FF0FF3030BDF0B5082119
:100C700095B02B4800F0FAFA01211122032005F06B
:100C8000FDFF284C0323206014AD07A8002110228B
:100C900045F8403D07F090FC20684FF410630028B1
:100CA000ADF81430264601DA002307E02946202259
:100CB00006F04CF8002822DA4FF0FF3300202360C2
:100CC00015B0F0BD184C194D236800200133236086
:100CD0002F6805F053FE164A1368FB1A18440023C8
:100CE000136022682860B2F57A7F08D11149236029
:100CF0000A682B60571C0F600F4941F8220020231F
:100D000003930CAB009303AB019330680B4940F2A3
:100D10001F52002306F062F80028F0DDD2E700BF82
:100D2000A42200201C0000206C2200204419002076
:100D30004819002040190020702200204C1D00207E
:100D40002DE9F0413A4DADF5A36D092317AC2360B1
:100D50002B68002B10DA374B37488DE81800374BDB
:100D60004FF48061029306220823FFF735FD002827
:100D7000DCBF4FF0FF332B600023E35440F2BB4253
:100D800001339342F9D105A802F09AFE0325002110
:100D90000FAF0AA8102207953D6007F00DFC284B05
:100DA00012A806A9069305F015FA08B901203AE041
:100DB0004FF41063284601211122BB80ADF820308A
:100DC00005F05CFFB0F10008F0DB0A254FF47A76FD
:100DD0001C4B00201A6801321A6005F0CFFD1A4B37
:100DE0002146186020230193009740462A4600239D
:100DF00006F06AF8013EEBD1643540F21E539D4285
:100E0000E4D1124B1248F158043607F0DDFB342EC2
:100E1000F7D1104807F050FC404605F07BFE0E4825
:100E200007F04AFC00200DF5A36DBDE8F08100BF7E
:100E30001C0000206D0C00084C1900203E94000896
:100E40003A3A31002000002048190020702200208A
:100E5000499400083D9400084E9400082DE9F041A3
:100E600020F00047FD0D7F3D162D064613DC002DBA
:100E700080461BDB194F2F41074214D0184906F05A
:100E800089FD002107F04AF868B1002E1BDB28EA33
:100E90000700BDE8F081B7F1FF4F04D3014606F02B
:100EA00079FDBDE8F0813046BDE8F0810C4906F0DF
:100EB00071FD002107F032F80028F4D0002E08DB85
:100EC0000020BDE8F0814FF4000343FA05F5A84483
:100ED000DDE7002FE7D00348BDE8F081FFFF7F008A
:100EE000CAF24971000080BF08B506F0B5F902F0FA
:100EF0005FFF03F0C3F900F0BFFB05F0EFF800F06F
:100F000005F8BDE8084001F0C3B9000013B5074C6F
:100F1000204605F083FB00944FF480610322044BCC
:100F2000044802F0A1FE02B010BD00BFE42600207C
:100F300053940008E422002010B5036AC469426A91
:100F40001C1B944201DD002010BD5C1C1340046298
:100F5000F9D4806A00EBC30303C983E803000120CE
:100F600010BD00002DE9FF411F462A4B064653F8ED
:100F70002150294B90461B8803802DB93846FFF736
:100F8000ECF94FF0FF3440E0AB88032B2FD028461C
:100F90003146FFF7D1FF044648B13846FFF7DDF987
:100FA0001E4B1B689B889BB2052B2DD12AE0B8F104
:100FB000000F03D13846FFF7D0F926E0DFF85C8058
:100FC00004A9D8F8003041F80C0D1A8905F1180071
:100FD00092B203930292FFF7D5FBD8F80000466166
:100FE00083889BB2052B14BF0421052105E06B69A2
:100FF00003C883E8030028460721FFF70FF93846A6
:10100000FFF7ABF9FFF70EFA0124204604B0BDE864
:10101000F08100BF90000020140100201801002082
:101020002DE9F0410E460546FFF78FF9364B07468E
:101030001A88364B12B253F82240A16AD9B1E2693C
:10104000236A934217D0531CE361636A13409846A6
:1010500046B95A1C06D13846FFF77FF94FF0FF30EA
:10106000BDE8F081002B0ADB01EBC30393E803002A
:1010700085E8030004E0002EEDD04FF0FF386561F5
:1010800004F11800FFF778FB80B9B8F1000F09DA16
:1010900020460321FFF7C2F83846FFF75EF9FFF755
:1010A000C1F92EE03846FFF758F92AE0B8F1000FF1
:1010B00086680DDB236AE169626A591A9142A56A62
:1010C000D7BF591C4FF0FF331340216205EBC30516
:1010D000736993E80300B38885E80300052B07D004
:1010E0000023736130460721FFF798F8348900E048
:1010F0000F243846FFF731F90E2C02D82046FFF7AF
:10110000C1F80120BDE8F08114010020900000200A
:1011100038B50446FFF719F9074B21461B880546E9
:101120002380064B1868FFF707FF04462846FFF7A1
:1011300014F9204638BD00BF14010020180100201A
:101140000F4B10B553F821300246B3B12121018075
:10115000998803290BD103C85C6984E80300184609
:101160000721FFF75BF8074B0120186010BD1846F8
:101170001146BDE81040FFF7DFBE4FF0FF3010BD55
:10118000900000208C00002070B504460D46FFF74B
:10119000E7F8064628B120462946BDE87040FFF72B
:1011A000CFBF0A4B1B881BB2AB4204D12046BDE81F
:1011B0007040FFF7ADBFFFF7C8F829460346324637
:1011C0002046BDE87040FFF7CDBE00BF14010020EF
:1011D0002DE9F0410D4690460746FFF7B6F80A4B59
:1011E00006461A88094B12B253F8224005212046C0
:1011F000FFF714F865613846414633460122BDE8E1
:10120000F041FFF7AFBE00BF1401002090000020A6
:1012100070B504460D46FFF798F8B4F90020104B5E
:10122000064653F82240BCB1A388052B02D0FFF735
:1012300094F811E0636995E8030083E8030007214F
:101240002046FEF7EBFF24893046FFF786F820465C
:10125000FFF718F8012070BD4FF0FF3070BD00BFE0
:10126000900000200121FFF7DBBE000049B14A1EBB
:10127000114006D1054B1B689862D96119625A6208
:1012800001E04FF0FF310846704700BF1801002011
:10129000094B4FF000629A60102283F82220DA771F
:1012A000002303F16042013302F5614210213C2B1F
:1012B00082F80013F5D1704700ED00E0884210B5C8
:1012C000044608BF446808D023465A682AB18A42B7
:1012D00001D01346F9E74A685A60002308464B607C
:1012E00002F064FE204610BD38B5154602F01AFC27
:1012F000044668B1B4F90800294602F08FFB0028C3
:1013000002DC284602F052FE204602F031FCEFE7F4
:1013100038BD000038B58B680C465880054600F093
:1013200055FE636800211BB1DA685B681144FAE777
:10133000B0F89431994204D92046BDE8384002F013
:1013400035BE60B1B0F89231DB0708D501200749FE
:1013500040F20222234602F029FB30B9ECE728468E
:10136000214602F04DFB0028E6DD38BD0000FFFFFE
:101370002DE9F84389468E680746904600211AB148
:10138000D06852680144FAE7B27949BAFF2AB180BD
:101390000BD198F81020023AD2B2022A03D82F4972
:1013A0008A5CFF2A00D13B22B271F27942B90FB9AF
:1013B000402204E0384600F009FE90F89621F271D0
:1013C000B068F16850EA010307D13469756954EADD
:1013D000050314BF0022012200E0002282B3B0699D
:1013E000F16950EA01030AD1346A756A23BA2ABA4C
:1013F000002B08BF012A14BF0022012200E00022B6
:1014000092B1002232727272B272F27232737273DD
:10141000B273F27332747274B274F274327572759C
:10142000B2750122F2750BE006F11801384600F0A2
:1014300085FE014620B106F10800102207F0B3F83E
:101440004046494602F09CFB002804DA831C08BF92
:101450000020BDE8F8830020BDE8F883659400080B
:101460002DE9F04F85B090F9103000AF0133804680
:101470008B4609D183685E8802F0B8FD002800F031
:10148000E4804468804601E004460026204602F0DD
:10149000ADFD8146002800F0D8804445816818BF22
:1014A000C8F804900B7E08BF8046FF2BD0F804A03C
:1014B00034D1E6B907F1080002F002FB002800F081
:1014C000C4800020014608224FF0FF333E8902F01D
:1014D0008DFC002800F0B980836800221A705A70D1
:1014E0005A805A719A711A71C0F80480804634B2D9
:1014F000BBF1000F07D0204649465246FFF738FFA0
:101500000028C0F2A280D8F8083020461A79414657
:1015100042F040021A71FFF7FDFEA6E08A69CB692E
:1015200052EA03000AD10C6A4D6A23BA2ABA002B88
:1015300008BF012A14BF0023012300E0002353B990
:1015400001F11804002E3BD1381D214600F0BEFDEC
:10155000064600283AD0BBF1000F06D030B249460B
:101560005246FFF705FF00286FDB48460022C3689C
:1015700040681A440028FAD10146022302F036FCE2
:101580000446002861D085682846D9F80810D9F8A3
:101590000C2007F008F8D9F80C30D9F804901D4455
:1015A000B9F1000FF0D1404602F000FD314B214669
:1015B000B3F9000002F032FA002856DC204645E07C
:1015C00030B2214600F05CFD0028C4D10823FB7036
:1015D000F81832B2F91C234604F072F86D4606463C
:1015E000002836D0BBF1000F05D049465246FFF720
:1015F000BFFE00282DDB98F91030FC78013304D1B0
:1016000040464146FFF75AFE80460020014604F15D
:1016100008024FF0FF3302F0E9FB8146C8B183684E
:1016200000221A705C705A805A719A711A71ACB1AA
:1016300083685A78A24211D1187807F1080108305E
:101640001844224606F0AFFF08E0404602F0AEFC28
:101650000BE0404602F0AAFCAD4606E0C9F8048063
:1016600030464946FFF756FEF6E71437BD46BDE85B
:10167000F08F00BF042700201FB50A4CB4F90030DA
:1016800063B9094A09488DE80C00094B4FF48061A1
:10169000029304220823FFF79FF82080B4F900008A
:1016A00004B010BD04270020F91800080627002008
:1016B00060940008292A70B50C46154608D03A2ACD
:1016C00004D0112A0CBF0423002302E0032300E00E
:1016D0000223292D237405D03A2D14D1214605F07B
:1016E00090FF10E000232374616839B191F9103044
:1016F000022B03D12046FFF7E1FDF5E70223237417
:10170000204600F023F8104994F9100002F01CFA6A
:1017100029460646022002F017FA3118204603D166
:10172000BDE8704002F042BC013902F02BFC94F994
:10173000100022460449FFF7D7FD29462246022021
:10174000BDE87040FFF7D0BD0000FFFF2DE9F04776
:10175000814606463EB196F91030013301D07668D5
:10176000F8E7B3685E88D9F804A0BAF1000F10D08A
:101770009AF91030022B0CD1DAF80C30282B08D152
:10178000DAF808301B7803F0F003602B40F09C80FF
:101790001AE0D9F808301B7803F0F003602B40F012
:1017A0009380484602F022FC0446002800F08C801A
:1017B0002821022202F036FBA146824620B92046AB
:1017C000BDE8F04702F0F2BBDAF80880D9F80C3037
:1017D000B8F8041049BA89B2994202D2484602F0D8
:1017E00097FBD8F81820D8F81C3052EA03010CD126
:1017F000D8F82430D8F820201CBA15BA002D08BF1C
:10180000012C14BF0023012300E00023002B68D12A
:1018100008F1180136B9304600F058FC0646D0F100
:10182000010004E030B200F02BFCD0F1010038BF21
:101830000020002855D0D8F80820D8F80C302D4FBB
:1018400018BA11BA0026B94208BFB0420BD098F8B6
:101850000830FF2B09D198F8095005F00F05AA1E92
:101860005542554102E0012500E0002529465DBBB7
:10187000D8F81820D8F81C3015BA1CBABD4208BFD9
:10188000B4420BD098F81830FF2B09D198F81950B2
:1018900005F00F05AB1E5D425D4102E0012500E051
:1018A0000D468DB998F807304846013BDBB288F801
:1018B0000730002B84D002F099FB0646504602F018
:1018C00095FB044600B10EB9484679E7406802F03E
:1018D0006DFB6660204675602946BDE8F047FFF75E
:1018E000BFBD30B2494698F80620BDE8F047FFF783
:1018F000E1BE00BF000080FE00B599B0082108A835
:10190000FFF7B4FC594B02200693594B05A91B88DD
:10191000ADF81C3002F0DEF840F20523ADF80E30D1
:1019200001A8FFF79FFCBDF806306FF40072134466
:10193000232BF5D801A252F823F000BFCD190008DF
:10194000D5190008DF190008DF190008211900085F
:10195000211900082119000821190008211900087F
:10196000211900082119000821190008211900086F
:101970002119000821190008EF190008FB190008B7
:10198000051A000821190008211900085B1A00082F
:10199000211900080D1A0008211900082119000852
:1019A000211900082119000821190008211900082F
:1019B0002119000821190008151A00081D1A00082D
:1019C000251A0008371A00083F1A00080298FFF786
:1019D000BDFEA5E702980121FFF742FDA0E76FF0E9
:1019E000850301A803A90493FFF712FC98E7029B63
:1019F0005A7E22F008025A7692E70020029900F0FF
:101A00002DFB8DE7029801F023F989E7029801F098
:101A1000A9F985E7029803F0F7FD81E7029803F042
:101A200027FE7DE7029B587C00F00F0002F094FC3B
:101A30000023037474E7029804F0D6F870E7029963
:101A40004B7E03F03003202B02D0302B7FF468AFA5
:101A5000B1F91A0000F0E2F862E7029A0021B2F947
:101A60001A000B4601F01AFD5AE700BF0000FFFF05
:101A7000140100200268436852EA030107D182681A
:101A8000C36852EA030114BF002001207047002000
:101A9000704700002DE9F04F87B0059091469846B9
:101AA0009DF840700E46002974D0082B74D8084663
:101AB000FFF7E0FF00286FD173683168039302914C
:101AC00003468246374A4FF0B40B0BFB032BDDE98C
:101AD0000201DBF80040DBF8045094468D4208BF59
:101AE00084420CD1DBF80800DBF80C10B468F56810
:101AF000A94208BFA04214BF0022012200E0002238
:101B0000C2B1B9F1000F13D0B8F1000F10D0B42456
:101B10005C4304F11000604449464246CDF804C0DD
:101B200006F041FDDDF804C0644484F8188067764F
:101B3000584634E058460193FFF79CFF019B18B1CB
:101B4000BAF1000F08BFDA460133082BBAD1BAF157
:101B5000000F23D005995046AAF81A1010223146DA
:101B600006F021FDB9F1000F0AD0B8F1000F07D03F
:101B70000AF110004946424606F015FD8AF8188021
:101B800007F00703022B8AF8197007D103238AF89C
:101B9000B03003E0084602E0002000E0504607B005
:101BA000BDE8F08F082B00202DE9F04180460F465C
:101BB000084661B3FFF75EFF58BB174E3146738B83
:101BC0002BB1B8F1000F02D01BB2984519D134687F
:101BD00075683A687B689D4208BF94420AD1FB68E9
:101BE000B468F568BA689D4208BF944214BF0023E8
:101BF000012300E0002323B1B42707FB0010BDE858
:101C0000F0810130082806F1B406D8D101E0BDE822
:101C1000F0810020BDE8F081082B002010B5FFF70F
:101C2000C3FF0446C8B1703005F04AFA04F18C00D5
:101C300005F046FA002323706370A370E3702371EC
:101C40006371A371E37123726372A372E3722373EE
:101C50006373A373E3736383637610BD10B510B130
:101C600000F1B40406E0074C04E02046FFF702FF51
:101C700028B1B434044B9C42F7D3002010BD204659
:101C800010BD00BF082B0020A830002008B5FFF7CA
:101C9000E5FF10B1437E1B07F9D508BD30B50A68D2
:101CA000046845684B689D4208BF94420AD1846825
:101CB000C5688A68CB689D4208BF944214BF002063
:101CC000012030BD002030BD0268436852EA0301A4
:101CD00007D18268C36852EA030114BF00200120C3
:101CE0007047002070472DE9F04100F5C4760746A3
:101CF00030468846FEF7D6FC0025382404FB0574E0
:101D000041462046FFF7CAFF90B10023237063705D
:101D1000A370E37023716371A371E3712372637223
:101D2000A372E37223736373A373E373237402E0F8
:101D30000135072DE1D13046BDE8F041FEF7DEBCAC
:101D40002DE9FF4700240746884692461D46264651
:101D500007EB040948464146FFF7A0FF002840F082
:101D600082804846FFF7B0FF10B1002E08BF4E46F4
:101D70003834B4F5C47FEBD1B146002E73D0304671
:101D80004146102206F00FFC337886F811A0FF2B95
:101D9000357416D0B7F89231DA0712D501F0B6F9DA
:101DA000054670B107F5C4742046FEF7A7FCB7F9E5
:101DB000900131462A462B4601F064FA2046FEF790
:101DC00071FC98F80030FF2B04D1337C43F0010301
:101DD000337448E0D8F80430D8F800201CBA244BFB
:101DE00015BA00229D4208BF944219D0B7F892312B
:101DF00003F00603062B17D107F5C4742046FEF73F
:101E00007DFCB7F89231DB0706D50021B7F99001C8
:101E10000A460B4601F042FB2046FEF743FC03E076
:101E2000337C63F07F033374B7F8923103F003031C
:101E3000012B18D040F2FF220023CDE900234FF000
:101E400080730293FF238DF80C3098F80D303846DC
:101E50008DF80D30B8F80E306946ADF80E3080229E
:101E60000023FFF76DFF484604B0BDE8F08700BFD0
:101E7000000080FE30B531B10378FF2B03D14078EC
:101E800000F00F0030BD436802681CBA194B15BA48
:101E900000229D4208BF944209D00378FF2B08D14D
:101EA000437803F00F03991E4B424B4102E001239C
:101EB00000E000231A46DBB903884FF6C0615BBA25
:101EC00023F03F031B041B0C8B4209D00378FF2B2C
:101ED00008D1437803F00F035A1F5342534102E0E5
:101EE000012300E01346002B0CBF0E20052030BD5F
:101EF000022030BD000080FE2DE9F8430025804619
:101F000091461F460C462E463FB10122AA403B781F
:101F10001A421AD0237CDB0717D42046FFF7D4FEE1
:101F200098B92046494604F014F937B999F80030B9
:101F3000FF2B02D0637C834207D8B04205D9B8F1A9
:101F4000000F01D0C8F8004006460135072D04F106
:101F50003804D9D13046BDE8F88300007FB51A4C6B
:101F60000646B4F890512BB283422AD04DBB294685
:101F70001022684606F020FBFF238DF80030022374
:101F80008DF8013004F5C47001238DF80F30FEF791
:101F900089FB4FF4A063A4F89431402384F8963170
:101FA000694680222B462046A4F89061A4F89251FD
:101FB000FFF7C6FE04F5C470FEF7A0FB204600F054
:101FC000DFFE04B070BD00BFA8300020034BB3F9A2
:101FD000902182420CBF184600207047A830002094
:101FE000B0F89231DA0707D511B143F0020301E0EE
:101FF00023F00203A0F892317047B0F89231DB076A
:1020000001D503F0A1BD70472DE9F0410C461646FD
:102010009846FFF7DBFF0546C0B12046C4B1FFF785
:1020200053FEB8B9802E16DC05F5C4773846FEF7A6
:1020300039FB2146324643462846FFF781FE0446D7
:102040003846FEF75BFB2046BDE8F081BDE8F08135
:10205000BDE8F0810020BDE8F081000010B50C461D
:1020600020B90648B0F990313BB102E0FFF7AEFF6E
:102070002146BDE81040FFF736BE10BDA830002055
:102080002DE9F8438946FFF7A1FF0546C8B100F5E1
:10209000C4773846FEF706FB0026AC1920464946B1
:1020A000FFF7FCFD804618B13846FEF727FB09E034
:1020B0003836B6F5C47FF0D13846FEF71FFB4446EC
:1020C00000E004462046BDE8F883000038B5094C1E
:1020D0000546B4F9900125B9FFF7D2FF28B90020D1
:1020E00005E0FFF7CDFF2860F8E7B4F8900100B2F3
:1020F00038BD00BFA83000202DE9F341002602AD15
:10210000884645F8046DFFF761FF00F5C474074683
:102110002046FEF7C7FA2846394642463346FFF7BF
:10212000EBFE054620461DB1FEF7E8FA019802E0F5
:10213000FEF7E4FA284602B0BDE8F0812DE9F04F41
:1021400089B08846FFF742FF00F5C473064618467B
:102150000193FEF7A7FA04A80021012206F02CFA49
:1021600035464FF0FF3700242B78FF2B0BD0284645
:10217000FFF7AAFD38B90123A3409DF81020274698
:1021800013438DF810300134072C05F13805EBD1DD
:102190007B1C73D00DF1180B22460021584606F027
:1021A0000BFA40460121FFF765FE9DF8103000252F
:1021B00002900393B1462C460121A140039B194292
:1021C0002FD041464846FFF769FDCA460146002820
:1021D0004CD14846FFF74EFE029B984209D11BF8AE
:1021E00004100431C9B20BF80410A94288BF0425B9
:1021F0000AE009D21BF804100231C9B2A94228BF73
:102200000D460BF80410EDB2D9F8181049B11BF8BF
:1022100004100131C9B28D4238BF0D460BF80410CD
:10222000EDB20134072C09F13809C5D10021012292
:1022300004A806F0C1F99DF8101000221BF8020056
:10224000A84203D1012090400143C9B20132072ABC
:10225000F4D108A800238DF8101040F80C3D314649
:10226000424604ABFFF748FEDDF814A0BAF1000FB8
:1022700006D14FF0380C0CFB076A01E04FF0000A62
:102280000198FEF73BFA504609B0BDE8F08F000018
:102290002DE9F04F8DB005A801F012FC644E814687
:1022A00005AD00274F4500F0C08035F9020BFFF760
:1022B0008DFE0446002800F0B48000F5C478404646
:1022C000FEF7F0F94FF0000A0CAB012203F81DAD48
:1022D00035F9020C0E210092524601F0ADFB86301A
:1022E00030D09DF91330012B2CD10823ADF81830D4
:1022F0000DF1300B4FF6FF732BF8103DB6F892310D
:102300004FF0020C43F0030335F9020CA6F89231AA
:10231000CDF800C00521524606ABCDF80CC001F047
:10232000A4FBDDF80CC035F9020C0921CDF800C082
:1023300052465B4601F080FB35F9020CBDF82010D7
:1023400003F0C6FD082335F9020C07210093002293
:1023500006AB01F071FB002803DA4046FEF7CEF928
:102360005FE09DF818300CA98DF828309DF81930E1
:1023700048F2FE028DF829309DF81A3020468DF87B
:102380002A309DF81B308DF82B309DF81C308DF8CD
:102390002C309DF81D308DF82D309DF81E308DF8B5
:1023A0002E309DF81F308DF82F30002361E9042373
:1023B00040220023FFF7C4FC022335F9020C092157
:1023C000009300220DF1160301F036FB002806DB16
:1023D000BDF81630B3F5A06F28BFA4F894310423DC
:1023E0001821002235F9020C00930DF1160301F0BB
:1023F00023FBB4F892310028CCBF43F0800323F0D4
:102400008003A4F892314046FEF778F92046012176
:10241000FFF7E6FDB4F89231DB0702D5204603F062
:10242000DBF8013706F5F4763CE70DB0BDE8F08F38
:10243000A830002013F1860F2DE9FF41074688469A
:1024400016461C4655D0FFF7AFFB0546002831D194
:102450003846FFF7BBFDB0F8923103F00303032BBE
:10246000A3B21FD114220292232200923846414681
:1024700032460395FFF70EFB0446002839D000F1E1
:102480008C05284604F01CFE1B4B4FF40972B3F96F
:1024900000308DE8140004AC284614E9060004F06E
:1024A000F1FD26E003220092384641463246FFF70E
:1024B000F1FA1EE0437E03F00703012B0CD0027EED
:1024C000A3B29A4200F110070CD02C763846314660
:1024D000224606F068F82846032104B0BDE8F04122
:1024E00000F02CBF30463946224606F04DF8002851
:1024F000EBD104B0BDE8F0810427002073B5044699
:102500000E4604F08FFD0A23B0FBF3F202FB13002A
:10251000421D72436846B2FBF3F2C4F89C6100218D
:1025200004F08DFD9DE8030004F5D07383E80300FB
:10253000064AD4F8A411B1FBF2F3184402FB1313BA
:10254000C4F8A001C4F8A43102B070BD40420F002D
:102550002DE9F04F9946D3798FB0FF2B82468B46F9
:10256000904640F0DD8099F80110002940F0D880B5
:10257000189B172B40F2D48099F80830FF2B00F0FD
:10258000CF809268D8F80C3052EA030009D1D8F80D
:102590001430D8F8102052EA030114BF002301239D
:1025A00000E00B46DE071BD5D8F81840D8F81C50C1
:1025B0005D4B2EBA27BA00229F4208BF96420BD12C
:1025C000D8F820301BBA012B06D198F82430B3F18B
:1025D000FF056B426B4100E00023002B40F0A08020
:1025E000504609F10801FFF74BFD0446002800F0B2
:1025F0009780189BA3F1180C00231D4619461E4610
:10260000BCF1000F20DD09F118029719925D012A33
:1026100003D0212A08BF3D460FE006AB99F8002001
:102620005846009341463B46CDF814C001F09EF851
:10263000031EDDF814C073DB39467A7806EBC20658
:10264000B6B2ACEBC20CDBE7504605910493FFF742
:10265000BDFC059908F1080606AA049B002949D08B
:10266000002D47D0B0F8921101F00301032941D1A8
:1026700099F800704146019202933A46334600951C
:10268000504603F02DF90F2105F108020023814681
:1026900003F00AF90746B9F1000F05D10AA831463F
:1026A000102205F080FF2FE02B7A83F002038DF8D3
:1026B00020306B7A8DF82130AB7A8DF82230EB7AAE
:1026C0008DF823302B7B8DF824306B7B8DF82530F3
:1026D000AB7B8DF82630EB7B8DF8273009990ABA51
:1026E00008990BBACDE90C2348F2FE020023CDE98C
:1026F0000A2309E050463146FFF79CFE0AA83146FE
:10270000102205F050FF002798F818302146B3F149
:10271000FF046342009750460AAA634100F01AFD85
:102720000FB0BDE8F08F00BF000002FF2DE9F04FB1
:1027300003F1080989B092460F4649461E46804675
:10274000129CFFF731FA9AF80730FF2B40F0C08057
:102750007578002D40F0BC80172C40F2B980337A98
:10276000FF2B00F0B580002800F0B280A4F1180B18
:102770002C46BBF1000F2CDD06F118031A191B5D66
:102780000592022B0DD0212B16D1059B3278009398
:10279000002301930293404651464B4603F0A0F8B4
:1027A0000AE006AB0093327838465146059B01F0AB
:1027B00013F8051EC0F28C80059A537804EBC3040D
:1027C000A4B2ABEBC30BD4E797F91030013303D0BD
:1027D0007F68002FF8D100E0BF6840464946FFF708
:1027E000E3F90446002873D0437E03F00703022B6D
:1027F0001AD13FB13B7823B17F78003718BF01274A
:1028000000E01F46F80701D5002D61D006A9A4F805
:102810001A80257604F110002A4605F0C4FE3379AB
:10282000204659063DD538E03FB13B7823B17F784B
:10283000003718BF012700E01F4617F0010705D138
:10284000BDB9277E003718BF012712E085B1237E6E
:102850009D420AD004F1100006A92A4605F094FE14
:10286000D0F1010038BF002000E00020074600E062
:102870002F4633799A0602D40FB155B11FE045B106
:10288000A4F81A80257604F1100006A92A4605F05E
:102890008AFE33795B0602D52046072102E01FB18C
:1028A0002046032100F04AFD96F90430002B637E98
:1028B000B4BF43F0080323F00803637608E0637EA7
:1028C00003F00703072B03D12046032100F036FD58
:1028D00009B0BDE8F08F00002DE9F04F87B08A46BF
:1028E0001F4681461646DDF84080FFF76FFBB0F8C3
:1028F0009231054699075CD5F379FF2B59D17C7845
:10290000002C56D1B8F1070F53D9A8F10808234677
:10291000B8F1000F18DD07F1080202EB040B125D9D
:10292000012A09D102AB3A785046009331465B4602
:1029300000F01CFF031E3CDB9BF8012004EBC204EB
:10294000A4B2A8EBC208E3E7083602AA484631461B
:10295000FFF770FDB5F892315A072AD513F0010F31
:10296000154F164B04AC08BF1F4604F05BFBB0FBD1
:10297000F7F202FB17020021204605F5E67704F086
:102980005EFB384604F09CFBB5F89231DB0710D5AE
:1029900048463146FFF708F958B1094B40F2152275
:1029A000B3F9003001900092384694E8060004F034
:1029B00069FB07B0BDE8F08F80841E0020A10700EE
:1029C000042700202DE9F04F8DB0904605911D465B
:1029D0008246FFF7FBFAD8F80C30D8F808200446F6
:1029E00018BA984B11BA0022994208BF90420BD0F6
:1029F00098F80830FF2B09D198F8093003F00F033D
:102A0000981E4342434102E0012300E00023002BD3
:102A100000F0158198F80830FF2B00F0108198F82D
:102A20000730FF2B40F00B816B78002B40F00781C3
:102A3000169A0F2A40F2038108F1080350461946FE
:102A40000393FFF7B1F8064650B9082300933246C6
:102A5000334650460399FFF71DF8064668B9EEE085
:102A6000437E190706D5EA8852BA92B212B923F00A
:102A7000080301E043F008037376EB889FB2CFB1FF
:102A80005FBA06F11C0B58460DF12809BFB204F0DD
:102A900017FB48463946002204F0D1FA6A4B4FF43E
:102AA00004721B888DE84400584699E806001BB262
:102AB00004F0E8FA2B790BB184F89631B4F892312E
:102AC000C3F30D03A4F892316A79120202F4404272
:102AD0001343A4F89231A96839B1D4F89C3109BAEA
:102AE0008B4202D02046FFF709FDEA68C2B10DF122
:102AF00018094846002112BA04F0A1FA99E8030027
:102B000004F5D47383E80300504AD4F8AC11B1FB48
:102B1000F2F3184402FB1313C4F8A801C4F8AC3153
:102B200004F5C470FDF7EAFD169A4FF0000B103A59
:102B30000292CDF810B0029B002B57DD05F1100377
:102B400003EB0B0913F80B30052B1CD004D8012B19
:102B50000DD0032B1ED03EE0222B2AD0232B3AD1BE
:102B600050462946169A4B4603F07EF833E008ABF0
:102B70002A780598009341464B4600F0F7FD00285F
:102B8000049028DA5BE0504629784A4600F04FFE70
:102B900008BB54E0504629784A4600F065FE0028FC
:102BA0004DD0D9F804301BBAABB19F4228BF1F46A5
:102BB00011E02878494602F07DFF00283FD0B9F89F
:102BC00006305BBA9BB233B13C22B7FBF2F18B42C9
:102BD00001D202FB03F799F80130029A0BEBC30B09
:102BE000A2EBC3021FFA8BFB0292A4E708AA049B84
:102BF00050460399FFF71EFCB4F89231DA071ED550
:102C000004F5D87007EB470704F05AFA0025042FA3
:102C10008CBFB9080121304684F8975102F020FE9C
:102C20003346B6F91A002946324600F02BFBB4F8B9
:102C300092319B0703D520460121FFF7DEF90DB045
:102C4000BDE8F08F000080FE1401002040420F001C
:102C5000F0B5437E8BB003F00703022B064601D08C
:102C6000052B79D196F8B020012A70D9022B11D109
:102C70004FF080730893FF238DF82430737B40F26C
:102C8000FF248DF82530F3890025CDE90645ADF800
:102C900026300BE006AB96E8030083E8030006F15C
:102CA000080393E803000AAB03E90300748B013ABD
:102CB00086F8B02024BB294B03AD28460494059325
:102CC00000F0FEFE0746BC4208D035F91400002192
:102CD000324606AB00F0D6FA0134F4E706F13804C8
:102CE000204604F0EDF91E4B40F21222B3F90030F9
:102CF0008DE8440004AA204606CA04F0C3F92BE07C
:102D000020B2FFF763F90446324606AB002104F512
:102D1000C475B6F91A0000F0B5FA06F1380728466E
:102D2000FDF7C0FC384604F0CBF90D4B40F21222FF
:102D3000B3F900308DE8440004F5D474384694E8C3
:102D4000060004F09FF92846FDF7D8FC04E0B6F928
:102D50001A003146FEF762FF0BB0F0BD40420F0093
:102D600004270020437E03F00703042B03D0072B26
:102D700004D1032100E0052100F0E0BA7047000013
:102D8000F7B500F5C4770446124D3846FDF78AFCC6
:102D900020461149FFF7B2FB68462A46002104F09D
:102DA0004EF99DE8030004F5D47383E80300D4F8DA
:102DB000AC210146B2FBF5F305FB13251944384657
:102DC000C4F8A811C4F8AC5103B0BDE8F040FDF759
:102DD00095BC00BF40420F0080C3C90110B5037805
:102DE0000446FF2B15D0084618238721002204F043
:102DF00072FC002370B181680B714B718B71CB71C8
:102E0000226863688A60CB60A268E3680A614B61EC
:102E100010BD002010BD70B50B780646FF2B0D4687
:102E200017D0104618238821002204F054FC0023F8
:102E300080B1846826F01F062671E371A371637167
:102E40002A686B68A260E360AA68EB68226163612C
:102E500070BD002070BD08B585210022082304F054
:102E60003AFC28B1836800221A715A719A71DA719A
:102E700008BDCB1D002110B50446104603F0F80232
:102E80000B4600F0B3FF20B183681C70C268D20803
:102E90005A7010BDF8B50F461546911C1A46FFF73B
:102EA000E8FF044660B18668C26802360021023A33
:102EB000304605F081FB304639462A4605F073FB63
:102EC0002046F8BD30B505460C4613462946224635
:102ED0000120BDE83040FFF7DDBF30B505460C46A8
:102EE0001346294622460220BDE83040FFF7D2BFF4
:102EF0002DE9F04180460F4616461D46079886216B
:102F00000022102304F0E7FB60B1069B846827F0E1
:102F10003F0776BA2DBA1BBA84F804806771E68041
:102F2000A560E360BDE8F0812DE9E04306468846F0
:102F3000174603202021079A9946FFF79AFF054676
:102F400028B38068002328F03F083FBA99FA89F92E
:102F5000867080F803804760C0F80890037343735D
:102F60008373C373037443748374C37403754375A9
:102F70008375C375037643768376C3760377437789
:102F80008377C37706991030324603F006F9284656
:102F9000BDE8E08310B50A46044608210520FFF786
:102FA00068FF28B18368002224BA9A70DA705C60E6
:102FB00010BD0268436852EA030107D18268C36802
:102FC00052EA030114BF002001207047002070471F
:102FD00030B5022385B000930C46002205210DF187
:102FE0000E03054600F028FD002803DBBDF80E3077
:102FF000062B13D8082300932846022100222346DB
:1030000000F01AFD002802DBADF80E0002E00023FC
:10301000ADF80E30BDF80E0005B030BD08230093AA
:10302000284603210022234600F006FD0628E1DDA4
:10303000EAE773B514461022064600920846194680
:10304000234604F072FB0546B8B18368FF220020D6
:10305000DA71014608224FF0FF3300F0C7FE00226C
:10306000044658B183681A705A705A719A711A716D
:103070005A8083685E80456004E004E0686028460A
:1030800000F094FF204602B070BD00002DE9F34728
:103090008146084688469246FFF78BFF78BBD8F8F2
:1030A0000450D8F800402EBA174D27BA0024AF427A
:1030B00008BFA6420BD098F80030FF2B08D198F833
:1030C000010000F00F00821E5042504100E001203C
:1030D00010F0010013D198F81010CB0710D498F815
:1030E00011008DE8000501F0C001D8F81420D8F8CF
:1030F0001830FFF719FFC9F80000012000E0002098
:1031000002B0BDE8F08700BF000080FE38B50020A7
:10311000FEF7BCFD044658B1637E03F00703013B94
:10312000012B03D90A4B00221A600EE02046EFE77C
:10313000074D2868FEF7AAFD034618B9FEF7A6FD5D
:10314000034610B12B60184638BD204638BD00BF7D
:10315000903200202DE9FF470C9E89469A46804612
:103160001446FEF733FFB0F89231990701D40027D7
:1031700007E04046FEF72AFFB0F892315A07F6D52D
:1031800080272046FFF715FFA8B14FF0FF332370CB
:103190000223002563700123A570E5702571657118
:1031A000A571E57125726572A572E5722573657367
:1031B000A573E37301E047F04007BAF1000F0CD0AC
:1031C00002A94046FFF704FF014630B102A8C9B288
:1031D0003246FFF782FE70B106462EB199F81030E4
:1031E000DB0758BF47F02007384649463246FFF70D
:1031F00012FE074608B930463AE0404639462246B4
:103200000023FFF716FF054638468DB399F81030B6
:103210001A4F13F0010F23D003F004FF184E21467C
:10322000B0FBF6F909FB16094046FEF7BDFC00238A
:103230000293B9FBF6F306FB139600F15404204603
:10324000039603F03DFF40F20222B7F900308DE80B
:103250002400204604AC14E9060003F013FF09E043
:10326000B7F90000294600F0CBFB002802DC284615
:1032700000F09CFE04B0BDE8F08700BF04270020EA
:1032800040420F002DE9FF4707460D4690469946FC
:10329000FEF79CFE82462DB938464146FEF74EFFAA
:1032A000054668B1384602A9FFF792FE064650B1BE
:1032B00002A8F1B20022FFF705FE044620B935E06E
:1032C0000646044600E00446BAF89231DB0714D5FE
:1032D000082E0AD0082300933846032100226B44AD
:1032E00000F0AAFB80B208281FD100200F2102AAFB
:1032F000234602F0D9FAC0B1044640462146FFF702
:103300006DFD064688B1384631464A462B46FFF7E2
:1033100090FE044608B9304608E0074B2146B3F951
:10332000000000F06DFB002802DC204600F03EFEAD
:1033300004B0BDE8F08700BF04270020F0B50522E7
:1033400085B00292427E002622F007020A43052938
:1033500004460396427621D0072902D004294AD197
:1033600009E0B0F91A00FEF731FE04AB00F5D070A9
:1033700003C803E9030004F13805284603F0A0FE62
:103380001E4B40F21722B3F900308DE8140004AC54
:10339000284614E9060003F075FE2CE0B0F91A0087
:1033A000FEF714FE032305463146224605F5C47692
:1033B00084F8B030B4F91A002346FFF763FF04F134
:1033C00038073046FDF76EF9384603F079FE0B4BAF
:1033D00040F21222B3F900308DE8140005F5D475DF
:1033E000384695E8060003F04DFE304605B0BDE8CE
:1033F000F040FDF783B905B0F0BD00BF0427002001
:103400002DE9F04186B002AD07460C46102200219E
:10341000284605F0D1F8002C08BF2C46FF238DF874
:1034200008303846022321468DF809308DF81730D0
:10343000FEF784FE064678B169463846FFF7C8FDB8
:10344000014638B16846C9B20022FFF73BFD054688
:1034500018B91CE0054600E005462846FFF7FBFCCE
:10346000804608B9284612E022463846414633468F
:10347000FFF7DFFD044608B9404608E0064B214649
:10348000B3F9000000F0BCFA002802DC204600F08E
:103490008DFD06B0BDE8F081042700202DE9F04F36
:1034A0008FB00AAC8146174620461022884600217C
:1034B000059305F081F8FF238DF8283002238DF85D
:1034C0002930484601238DF83730FEF77FFD00F59F
:1034D000C47605463046002F08BF2746FDF7E2F8C0
:1034E000B5F8924114F0010437D1AA46A3462B4601
:1034F00000225A4513DA9AF81100597C88420BD100
:10350000194650460492039302F023FE9AF81110D4
:10351000049A8142039B12D901323833E9E708A8A3
:1035200051462246FFF7B2FD48B1089B33B9204609
:10353000039300F03BFD039B1C4607E01C460BF188
:10354000010BBBF1070F0AF1380AD0D10794002C08
:103550005CD13046FDF7D2F8FEE002F02FFB834647
:10356000002852D084694FF0000A002C35D06368DF
:10357000AB421FD1DBF81830A34212D0A268996881
:1035800092F811E0487C864509D1104604920393D5
:1035900002F0DFFD049A039B527C82420AD91B6829
:1035A000EAE707A899685246FFF770FD10B1079B3C
:1035B0004BB39A462468D8E7E0B200F0CDFE03464C
:1035C000597C007C5A8ACDF800A002F03DFC07909F
:1035D000C8B182460134102C0AD00BEBD4039A7D7B
:1035E000012104F0070301FA03F31A42F2D0E3E7E2
:1035F000DBF81000BBF814105A46534602F04BFC9F
:103600000446079010B95046A4E00446B5F892313C
:103610001B0707D5B5F894012146FFF7BBFC0790BF
:10362000F0B10446B8F1000F0DD13046FDF766F851
:1036300048463946FEF782FD80463046FDF732F8AF
:10364000B8F1000F11D008A94846FFF7C1FC0146A8
:1036500058B108A8C9B22246FFF734FC079018B940
:103660003046FDF74BF860E00446B5F892C10CF027
:10367000100B1FFA8BF313B195F896B100E09B463F
:103680000CF0200A1FFA8AF3CBB1D5F8A031D5F897
:10369000A401334A0021E2FB03014FF47A720023B4
:1036A000CDF810C004F064FC2E4A00238B4208BF02
:1036B000824238BF1046DDF810C0824600E09A46CC
:1036C0000CF040039BB2ABB1D5F8A831244AD5F831
:1036D000AC010021E2FB03014FF47A72002304F0F5
:1036E00047FC4FF0FF3200238B4208BF824238BFB5
:1036F00010460346059A12B9B5F8982100E0002259
:10370000304604920393FCF7F9FFB5F89211039B3E
:1037100001F440418DE818005846090A049A5346BE
:10372000FFF7E6FB0546079008B9204612E0294658
:1037300048463A464346FFF77CFC0146079008B9E5
:10374000284607E0084BB3F9000000F059F90028BB
:1037500002DC079800F02AFC0FB0BDE8F08F00BF34
:1037600040420F0080EE3600042700202DE9F04192
:103770005E78044617461D4603F1020826B301F1A0
:103780000800FFF716FCF8B944B194F91030013382
:1037900002D1A3681C7801E06468F5E7853F022F39
:1037A00016D84CB905EBD6036FF00104641B1C441A
:1037B00013F8012D002AF7D006984146224604F05E
:1037C000F2FE2046BDE8F0816FF01500BDE8F08103
:1037D0006FF08500BDE8F081F8B55E7805461446C7
:1037E0001F460EB301F10800FFF7E3FBE0B9882C98
:1037F0001CD1B91C4DB195F91030013303D1AB6820
:103800001C785CB901E06D68F4E7F408023CE4B2AE
:103810000B1913F8013C0BB9013CF8E70698224656
:1038200004F0C1FE2046F8BD6FF01500F8BDF8B5F4
:1038300015460E46FEF7CAFB6C780746012C0ED1E2
:10384000862E0ED100F5C4763046FCF72BFF6B6850
:1038500030461BBAA7F89431FCF750FF01E0002076
:10386000F8BD2046F8BD00002DE9F043537887B03D
:10387000042B8146904640F0908086295ED15569A0
:1038800014692EBA474D27BA0024AF4208BFA6429A
:1038900009D0137CFF2B08D1557C05F00F05AA1E1B
:1038A0005542554102E0012500E00025002D45D19B
:1038B0004846FEF78BFBB0F89231DB0703D598F949
:1038C0000330002B3ADB08F1100648463146FEF77C
:1038D000D7FB044620B1427C98F802309A4225D0AA
:1038E000D8F8043013B30823009348460721002278
:1038F00004AB00F0A1F8002850DB02A8314698F88C
:10390000022002F04AFC98F80330484602A998F8D1
:10391000022003F0C003FEF777FB044600283DD0E9
:103920004846FEF753FB012102F00EF9D8F80430A7
:1039300033B91CB148462146FEF790FB01252DE026
:103940001BBA6361D8F8083004F11C061BBAA361E6
:10395000304603F0B5FB6369013313D0D8F8041087
:1039600002AD284609BA002203F069FB0E4B40F273
:1039700011221B888DE81400304695E806001BB222
:1039800003F080FB237C03F0BF03237498F803202B
:1039900022F03F0213432374D0E70025284607B0E6
:1039A000BDE8F083000080FE140100202DE9F34102
:1039B00080460C4617461E4600F0C6F80546D8B1AC
:1039C0002146404600F0AEF8691E0446304600F03D
:1039D000D9FA8CB12189684609B2ADF80270019616
:1039E000FDF7D2FB002802DC304600F0DFFA20466B
:1039F00000F0BEF80446ECE7284602B0BDE8F081CE
:103A000007B5034640F20222019168461946ADF817
:103A10000220FDF7B9FB03B05DF804FB07B50346D0
:103A200040F20122019168461946ADF80220FDF7E7
:103A3000ABFB03B05DF804FB10B588B006930A9B9E
:103A40000446ADF81C304FF401738DF81410ADF836
:103A50001620ADF8063001A805AB03A92246029353
:103A6000FDF7B6FB049808B010BD10B588B00693FA
:103A70000A9B0446ADF81C3040F203238DF8141065
:103A8000ADF81620ADF8063001A805AB03A9224613
:103A90000293FDF79DFB049808B010BD074B10B5CD
:103AA0001C8821B2814201D1002010BD1CB91880B0
:103AB000FEF754FAF8E76FF00B0010BD94320020C7
:103AC000034B1B8813B103800120704718467047D1
:103AD00094320020C3B2042B07D8054B53F82020A2
:103AE0000A6043F82010002070476FF015007047FF
:103AF00098320020C3B2042B11D8094A52F8203062
:103B00008B4206D11B6842F8203070478A4204D0AD
:103B100013461A68002AF9D101E00A681A60704752
:103B200098320020C3B2042B09D8064B53F820006A
:103B300020B143688B4203D00068F9E7704700204A
:103B4000704700BF98320020C3B2042B0BD8074B3C
:103B500053F8203000202BB15A681B688A4208BFF6
:103B60000130F8E770470020704700BF983200200E
:103B700028B14268006810B143689342FAD1704797
:103B800049B190F91030032B03D0042B06D102F079
:103B900069BA03F0B0BD6FF0150070476FF0010017
:103BA0007047000030B595B00446082104A8FDF721
:103BB0005DFB204B188880B2208100B2FFF76EFFBA
:103BC00023681D495B68204698476846FDF74AFB15
:103BD000BDF8023040F20222934214D008D8B3F567
:103BE000807FF2D1236820465B6901999847ECE712
:103BF00040F2032293420BD0B3F5017FE5D1226856
:103C0000019BD56807E0236820461B680199DBE724
:103C10002268019B156919785A6820461B89A847B4
:103C200040F20523039002A96846ADF80A30FDF77B
:103C3000EFFACAE7140100203D3C0008022810B545
:103C40000C460DD191F9100040F20122054923469E
:103C5000FFF7ACFE20B92046BDE8104000F0A6B941
:103C600010BD00BF0000FFFF30B585B0089C74B1E7
:103C7000256865B1084D0293009508230194FCF76F
:103C8000ABFD4FF6EA730028D8BF184601E04FF6A7
:103C9000ED7000B205B030BDA53B000810B5124C68
:103CA000072888BF033023688CBF20F0030008205A
:103CB0000022B3B15968884202D91A461B68F8E756
:103CC000091A072905D819680AB9216009E01160A5
:103CD00007E018440AB9206000E010601A684160EB
:103CE0000260184610BD00BFAC32002010B51A4C5F
:103CF0001A4B041BB4F5C05F1A681C462AD2002375
:103D000022B1824202D213461268F9E70729026003
:103D100086BFCA1C22F00302082242600BB9206051
:103D20000BE0596818601944411A072905D8016841
:103D3000C01A024419605A601846036853B14268B9
:103D400002449A1A072A05D81A6802601A1A5B6890
:103D50001344436010BD00BFB0320020AC320020DD
:103D60002DE9F843814614200E4615469846FFF784
:103D700095FF0446C0B12846FFF790FF074630B9CB
:103D800020461421FFF7B2FF3846BDE8F88301232F
:103D9000C4F80490E560A06084F8108023601EB130
:103DA00031462A4604F0FFFB2046BDE8F8830000B8
:103DB00010B50B4C2046FCF775FC0A4B0A4A18213B
:103DC0001360002220461A705A709A70DA701A71C5
:103DD00059719A71DA71BDE81040FCF78FBC00BFD1
:103DE000B04A0020B0320020AC320020F8B51E46A8
:103DF000531EB3F5C05F05460F4614460ED2084861
:103E0000FCF750FC2246394633462846FFF7A8FF08
:103E100004460348FCF772FC2046F8BD0020F8BDBC
:103E2000B04A002007292DE9F84388BFCF1C04467B
:103E30000D4636488CBF27F0030708279146FCF74C
:103E400031FC2DB124B1E3689D4201D8A2682AB9A2
:103E50002E48FCF753FC0020BDE8F8839D4207D1B3
:103E600084F810902948FCF749FC2046BDE8F88307
:103E70001420FFF713FF06460028E9D0BD4203D304
:103E8000E3685B1B072B2AD82846FFF707FF074686
:103E900010B9304614210BE0E068401BFFF7FEFE2E
:103EA000804640B930461421FFF720FF38462946A6
:103EB000FFF71CFFCCE7A1682A46384604F073FBE5
:103EC000A168E2682944521B404604F06CFBA068DC
:103ED000E168FFF70BFFB760C4F8088004E0A3684F
:103EE0008360A3682B44A360E36808485B1BE3601E
:103EF0006368F5607360012386F810903360666034
:103F0000FCF7FCFB3046BDE8F88300BFB04A002058
:103F1000072970B588BFCE1C04460D4618488CBFD3
:103F200026F003060826FCF7BDFB25B91448FCF76C
:103F3000E5FB0C2070BDE1688D421BD002D8891BC7
:103F4000072912D82846FFF7A9FE06460028EDD01B
:103F5000E268A168954238BF2A4604F024FBA068B5
:103F6000E168FFF7C3FEA66003E0A0683044FFF7F6
:103F7000BDFEE5600248FCF7C1FB002070BD00BF3C
:103F8000B04A002038B5044607480D46FCF78AFBC6
:103F900024B123682B4423606468F9E70248BDE834
:103FA0003840FCF7ABBB00BFB04A002038B5044630
:103FB0000D48FCF777FB94B194E82800012B0AD157
:103FC0000023A068E1682360FFF790FE20461421DB
:103FD000FFF78CFE01E0013B23602C46EBE7024833
:103FE000BDE83840FCF78ABBB04A002038B504462B
:103FF0001148FCF757FB0CB1E26822B90E48FCF7F8
:104000007DFB002038BD2368012B0FD96068A168B3
:1040100094F91030FFF7A4FE054610B12368013B68
:1040200023600548FCF76AFB284638BD0248FCF7C8
:1040300065FB204638BD00BFB04A0020884210B55D
:10404000044608BF446808D023465A682AB18A4209
:1040500001D01346F9E74A685A60002308464B60CE
:10406000FFF7A4FF204610BD2DE9F0419AB00821CA
:104070000AA8FDF7FBF87E4B012008937D4B07A9AA
:104080001B88ADF82430FFF725FD40F20523ADF87D
:104090000E3001A8FDF7E6F8BDF80630B3F5017F54
:1040A0000DD840F20322934280F0838040F2012237
:1040B00093420CD040F2022293421BD0E9E740F237
:1040C00025229342E5D1029800F034FAE1E7029DFF
:1040D0002846FFF78BFF044660B3054695F910802C
:1040E000B8F1010F6DD06D68002DF7D12046FFF7B4
:1040F0005DFFCEE7029DEDB1EB68072B1AD96B6827
:10410000C3B193F91030022B14D12846FFF76EFF8C
:10411000044678B187680026B7F9020001F0E6FE90
:104120008046606818B1C26840681644FAE7B8F182
:10413000000F01D12846DAE798F8042022B1204682
:1041400000F0D8FF68B9D1E7012201461346FFF716
:104150004DFE0028CAD062684260606083684122D8
:104160001A70626800231AB1D16852680B44FAE7EA
:10417000B8F802108B4207D8B7F902002146FFF7C2
:104180003FFC002885DCB1E73B4B59680029ADD1E5
:10419000B6F5006FAAD2798805A89A8140F2252247
:1041A00019805C609E60ADF816200693FCF7B0FFA6
:1041B0006FE76FF0850301A803A90493FDF728F8C2
:1041C00067E7EB68002B91D0AB681B78412B11D1CE
:1041D0002846FFF70BFF0546002887D04146424698
:1041E000FFF720FE0146002880D02046FFF726FF7B
:1041F00004462CE003F0D807B7F1C00257425741FC
:104200001FB1204600F088FA43E703F0E003602B7B
:104210007FF46CAF3846394628220223FFF7E6FDCB
:10422000064600283FF462AF21463A463B4600F07E
:104230009BFC0146B8B120464246FFF7F3FD01461C
:1042400088B12046FFF7FAFE63687360666002205B
:104250002874074940F201222346FFF7A7FB0028F4
:104260007FF417AF42E73046FFF7A0FE3EE700BFFE
:104270000000FFFF14010020B84A00201FB50B4CBE
:10428000208803B2002B0DDC094B0A480093002361
:104290000193094B4FF48061029303220823FCF73A
:1042A0009BFA208000B204B010BD00BFC84E0020B1
:1042B00069400008C84A0020689400080F4B37B5D1
:1042C000142404FB00341034638805466BB168463F
:1042D00002F0B8FE009B3C22B3FBF2F3084A52F80E
:1042E0002520934206D300236380637823F01003D4
:1042F000637001E0D31A638003B030BDCA4E002062
:104300000C5000202DE9F04180461148FCF7CAF915
:104310000024104D26462746E0B2FFF7CFFF2B7C46
:1043200053B12846414601F014FF2A7C824203D84B
:10433000B84284BF2E4607460134102C05F11405FF
:10434000EAD10348FCF7DAF93046BDE8F08100BF56
:104350004C500020CA4E00200F2838B5044614D80F
:104360000B48FCF79FF92046FFF7A8FF094B1420E4
:1043700000FB0434257C06481DB1FCF7BFF920463C
:1043800038BDFCF7BBF9284638BD002038BD00BF5A
:104390004C500020CA4E00202DE9F7460F288246D7
:1043A0000F46144699469DF828505CD8002A5CD0E8
:1043B0003048FCF777F93049142303FB0A13B9F1AD
:1043C000000F08BF0025802C88BF8022A3F8129020
:1043D0008CBF1A741C7415B14AF0100300E05346E8
:1043E000142000FB0AF00E187374326873683C687E
:1043F0007D68AB4208BFA2420AD1F368B268BC68CC
:10440000FD68AB4208BFA24214BF0023012300E0B5
:104410000023C3B9184A13547370B370F370337127
:104420007371B371F37133727372B372F372337366
:104430007373B373F373142303FB0A1330463946C3
:104440001A7C01F0AAFE684602F0FCFD009B3C22AB
:10445000B3FBF2F3094A4B44064842F82A30FCF712
:104460004DF9304602E0002000E0104603B0BDE800
:10447000F08600BF4C500020CA4E00200C50002097
:104480002DE9F84F0778467807F108080546914668
:1044900000F1080B8044BA19002008328A464FF018
:1044A000FF330146FFF7A2FC0022044618B38368DD
:1044B0001F705E705A805A719A711A71BBF1000FA9
:1044C00008D03FB180680278BA4203D1083059461B
:1044D00004F069F8B8F1000F10D07EB1A3685A78E3
:1044E000B2420BD11878414608301844324604F0E5
:1044F0005AF803E065602046BDE8F88F6A88A36833
:1045000000205A802A7901461A716A795A71AA796B
:104510009A71CA4534BF52464A460123FFF766FCEA
:1045200005460028E6D12046FFF740FD2846BDE8B5
:10453000F88F00002DE9F04F044685B0B0F9000077
:1045400001F0D4FC636880465E6800251EB1F26805
:1045500076681544FAE7A789002F52D1DFF8B4A195
:10456000D4F808C0BAF80020B8F802900132AAF8CE
:104570000020C5EB0C0292B2A9F10409914409F0A4
:10458000F809C2EB09091FFA89F99868294609F167
:1045900004020193CDF800C0FFF772FF019B0746AC
:1045A000DDF800C0002846D042689CFA9CFC926866
:1045B000A2F800C0117802F1040B61F03F01117004
:1045C000BAF8001049BA51805D688DB1EB68C6EB4E
:1045D000090A9A4528BF9A460BEB06005644A9687B
:1045E0005246B6B203F0DFFF4E4501D26D68ECE7EC
:1045F000B8F900003946FFF703FA002872DC3846A4
:104600006EE0AF427ED2B8F802B0D4F808C0ABF189
:10461000050B0BF0F80BC7F10501986829440BF165
:1046200005020193CDF800C0FFF72AFF019B8246E7
:10463000DDF800C028B96068FFF7B8FC00236360AC
:1046400064E042689CFA9CF19268BC441180117845
:10465000C5EB0C0561F01F0111702E49ED080988AA
:10466000157149BA51805D6802F10509D5B1BE42A4
:1046700016D0EA68B3189BB2BB420ED9BF1BBFB2BB
:10468000A968D61B5E4528BF5E4632464846394477
:1046900003F089FFB6B26D6805E06D681E46E5E778
:1046A000002600E02E465E4512D28DB1EB68C6EBC7
:1046B0000B079F4228BF1F4609EB06003E44A9682E
:1046C0003A46B6B203F06FFF5E4501D06D68ECE785
:1046D000B8F900005146FFF793F9002802DC504674
:1046E000FFF764FC002EA6D0A38902A81E44A68171
:1046F00040F22523ADF80A300394FCF709FDFCF7DE
:1047000051F803E01846FFF751FC666005B0BDE8BC
:10471000F08F00BF5450002010B5436804469968DC
:1047200083681A7802F0F802C02A06D0E02A0CD179
:104730001B79C268DB00053A02E0C2680023043A34
:104740000846214600F010F82046BDE81040FFF76B
:104750002DBC036833B1196800229A80DA801A6090
:104760000160F6E7436070472DE9F04F8BB00646D5
:1047700008A8059115461F46D1F8088002F062FC92
:104780007B4C4FF0000904F1900A206808B363687D
:10479000089AD21A032A05D9FFF708FC201FFFF751
:1047A000D8FF08E0B9F1000F03D0D9F808209342F0
:1047B00001D2A4F1040924345445E6D1B9F1000F23
:1047C00007D0D9F8040020B1FFF7F0FB4846FFF707
:1047D000C0FF96F8009006F1080109F10803F318EC
:1047E0000493B8F8003008A85BBAC3F30A03039334
:1047F000B8F8023002915BBAADF81A309BB2079359
:1048000096F801A0002402F01DFC5A4BA34653F871
:10481000082C22B3D26803998A4220D15A8A079978
:104820008A421CD11A7C4A4519D15A7C524516D16C
:10483000184602994A46019303F0A6FE019B70B9FF
:1048400003F108000499524603F09EFE019B30B923
:10485000494B242404FB0B34089BA36035E024B9A6
:1048600053F8082C0AB9A3F10C040BF1010BBBF1AE
:10487000040F03F12403CAD1002C00F0F5800020BE
:104880000146039A0123FFF7B1FA6060002800F0A7
:10489000EB80816800220023C1E90023089B029974
:1048A000A3604A4604F10C0003F07DFE04F11400FD
:1048B0000499524603F077FEBDF81A3084F81C9034
:1048C000E383002384F81DA02384002C00F0CC8017
:1048D000D4F80090E7B998F80430412B03D108F1DF
:1048E0000508013D19E003F0E003602B08F104081E
:1048F00013D160680599C268042300F035F90028D7
:1049000000F0AC80283580442D1A4FF0280C05E0CB
:1049100008F105084FF0000C00E0BC466068EA1999
:10492000C3689A4200F29B80BBB2591E294489B2E7
:10493000B9F1000F27D0B9F804209A4203D2B9F890
:1049400006A09A450BD2934201D28A4207D99A42D5
:1049500007D1B9F806305A1A5342534102E00123F5
:1049600000E00023002B7AD1D9F80090DCE700BFEB
:104970005C500020645000205850002009F10109CB
:10498000B9F1280F18D03A4A02EBC902B2F806A0D2
:10499000BAF1000FF2D17AB193802368D18013600D
:1049A0002260238C80682B4467442384384441462A
:1049B000CCEB050203F0F7FD6368228CDB689A42BA
:1049C00052D194F81C80677F002008EB0702014653
:1049D00008324FF0FF33FFF709FA054600283DD0B3
:1049E0008368002283F800805F705A805A719A7140
:1049F0001A71B8F1000F08D080680278424504D1DE
:104A0000083004F10C0103F0CEFD5FB1AB685A78B9
:104A1000BA4207D1187804F11401083018443A4614
:104A200003F0C1FD7288AB685A8032791A71B2798D
:104A30009A7172795A7100236B6063682BB15A685E
:104A40000AB11346FBE75D6000E06560022009499A
:104A500040F201226368FEF7A9FF10B96068FFF712
:104A6000A5FA2046FFF775FE0BB0BDE8F08F00BF3A
:104A7000E85000200000FFFF0023042A10B5437017
:104A8000037016D0082A02D0022A26D118E00B782B
:104A900083F0020303704B7843708B788370CB787C
:104AA000C3700B7903714B7943718B798371CB7927
:104AB00011E00B7883F0020303704B7843700223FC
:104AC000FF240022C470FE24827004714271CA5C0B
:104AD0000B4482715B78C37110BD184610BD03781A
:104AE00023F00F0343EA11130370437803F00F031D
:104AF00043EA01114170704773B51646194A0446DE
:104B00000D46106851686B4603C32CB3637CDB060B
:104B100024D4237C802B1DD0402B1FD9DA08501CB5
:104B2000D11F28443144C2F10F0203F02DFDA8B972
:104B3000237CDA08164416F8081CAA5C03F0070365
:104B40004A4002A90B4413F8083C1A4214BF002043
:104B5000012004E0012002E0204600E0002002B035
:104B600070BD00BF6C9400082DE9F74FD1F808B074
:104B70001F464B680BEB0706D3F808A0846896F92C
:104B800001308846002B2378B4BF0325022503F0AB
:104B90000F0343F0600323701BF80730914603F0C6
:104BA0001803082B24D014D8002B4CD1715D20465B
:104BB000FFF795FF73195A78617802F00F020A43E4
:104BC00062709978A378EA1C0B43A370B25C043539
:104BD00025E0102B26D0182B35D120460021FFF7D9
:104BE0007EFF637823F00F0363700023A37029E036
:104BF000735D72199B099B0043F060032370637817
:104C000003F00F036370715D01F00F010B436370DC
:104C10005178A278AB1C0A43A270F25C0335E378AA
:104C200013430FE06A1C715D20460192FFF757FFA6
:104C3000637823F00F0363700023A370E370019A7D
:104C4000154600E0E3701BF807305B0702D4735D84
:104C50000135A3711BF8073003F00303022B07D0C3
:104C6000032B07D0012B06D0735D0135E37103E000
:104C7000402300E0FF23E371737803F0400202F069
:104C8000FF076AB118064ABFB0780020000913F088
:104C9000300705D0FFF760FB0746002800F02682AA
:104CA000737803F07003302B6AD00ED8102B37D0F6
:104CB000202B49D0002B40F09F80711904F108008F
:104CC000102203F070FC103596E0502B6ED014D8F3
:104CD000402B40F09180002323726372A372E37231
:104CE00023736373A373E37323746374A374E37410
:104CF00023756375A375E3757EE0602B64D0702B1C
:104D00007AD10AF108019AF8002004F11000FFF7A7
:104D1000B3FE04F1080039463A7C01F03EFA6BE03C
:104D20006FF00102002322726FF07F026272A372A1
:104D3000E37223736373A373E37304F110007119B7
:104D4000082203F030FC3DE06FF07F0100236FF09C
:104D5000010261724FF0FF312272E1742275A37279
:104D6000E37223736373A373E37323746374A37491
:104D7000637504F116007119022203F014FC3AE085
:104D80009AF8002004F110000AF10801FFF774FE00
:104D90006FF00102002322726FF07F026272A37231
:104DA000E37223736373A373E37325E0711908221D
:104DB00004F1100003F0F7FB04F1080039463A7CD7
:104DC00001F0EBF9083517E04FF0FF320023E274F1
:104DD0006FF0010222757119022223746374A374A7
:104DE000637504F1160003F0DEFB04F10800394698
:104DF0003A7C01F0D2F90235737859070DD51A06BD
:104E00004ABFB078002000F00F009B0705D0FFF7E5
:104E1000A3FA0746002800F06981737803F00F03B6
:104E20000C2B00F26381DFE813F00D001500290060
:104E30004B0061016300710090000D00A100CE00E5
:104E4000F7001701711904F11800102203F0ABFBF1
:104E500010353AE16FF00102002322766FF07F02F5
:104E60006276A376E37623776377A377E37704F11B
:104E700020007119082203F096FB45E06FF07F01D6
:104E800000236FF0010261764FF0FF31227684F843
:104E9000231084F82420A376E37623776377A3771F
:104EA000E37784F8203084F8213084F8223084F8C5
:104EB000253004F126007119022203F074FB42E050
:104EC0009AF800109AF80120083104F120005144AA
:104ED000FFF7D2FD6FF00102002322766FF07F0210
:104EE0006276A376E37623776377A377E377ECE0C4
:104EF0007119082204F1200003F055FB04F1180099
:104F000039463A7C01F049F90835DEE04FF0FF32CE
:104F1000002384F823206FF0010284F82420711903
:104F2000022284F8203084F8213084F8223084F87A
:104F3000253004F1260003F036FB04F11800394651
:104F40003A7C01F02AF90235BFE09AF800109AF88D
:104F500001200831514404F12000FFF78DFD04F1D8
:104F6000180039463A7C01F018F9AEE00023637668
:104F700084F8233084F8243084F8253084F82630EF
:104F8000A376E37623776377A377E37784F82030FB
:104F900084F8213084F8223084F82730FF232376E8
:104FA000735D637673195A7884F823209A7884F8AD
:104FB0002420DA7884F825201B796A1D84F82630AD
:104FC000B35C063525E00023637684F8253084F849
:104FD0002630A376E37623776377A377E37784F8A5
:104FE000203084F8213084F8223084F8233084F88B
:104FF000243084F82730FF232376735D637673199A
:105000005A7884F825209B78EA1C84F82630B35C13
:10501000043584F8273058E0002384F82730A3763D
:10502000E37623776377A377E37784F8203084F8F7
:10503000213084F8223084F8233084F8243084F836
:10504000253084F82630FF23237602236376735DB0
:10505000013584F8273038E0002397F810A0237634
:105060006376A376E37623776377A377E37784F891
:10507000203084F8213084F8223084F8233084F8FA
:10508000243084F8253084F8263084F827303B7C9F
:1050900004F15800402B84BF40233B74FF23237648
:1050A000735D3946637673195B78A3763B7CE37650
:1050B0003A7C01F072F8291D04F1240031440422E5
:1050C00003F071FA063587F810A0B9F1000F05D189
:1050D000D8F80C305B1B5BBAA38005E0A9F1280966
:1050E00099FA99F9A4F80490284600E0002003B04A
:1050F000BDE8F08F2DE9F04F4368D0F808A0814655
:1051000000209D680146DA6889B00123FEF76EFE33
:1051100000218346002800F01A82846860232370EF
:105120006170AA68EB6805F1080052EA030E03906B
:1051300006D12A696B6952EA030014BF00210121DC
:1051400021B90398FFF7DEF8804601E04FF0000830
:105150002B7EFF2B05D005F11800FFF7D3F807468B
:1051600000E00027B8F1000F05D098F811301A07B9
:1051700001D0DB0605D467B17B7C1E0709D0D806B9
:1051800007D5637863F07F0363700023A370032364
:1051900000E002232E68687836BAC6F313062A7830
:1051A000591C0009A6B940EA021212F0FF0F22783A
:1051B00003D142F01802227035E042F01002227052
:1051C0006A782878120942EA0012E2548BB22AE087
:1051D00002F0030650EA06160FD1227842F00802C8
:1051E000227028688AB2297800BAC0F30340C1F35C
:1051F000810140EA8111E1540AE040EA0212E254DE
:1052000002339AB22B6889B21BBAC3F303436354C7
:105210002B6800211BBAC3F30723A354931C01324C
:1052200092B29BB2A154AA795E1CE254EA79B6B25A
:10523000402A07D0FF2A0AD0012A0CD1237843F054
:10524000010302E0237843F00203237006E0237891
:1052500043F00303F9E70233A2559EB2AA68EB6854
:1052600052EA030107D16969286950EA010E14BFA7
:105270000021012100E0002119B1637843F04003CF
:1052800041E0B8F1000F00F0638198F81130D906C1
:105290000BD5637843F04003637098F811301A0718
:1052A00003D0A27842EA0313A37000220DF1200C70
:1052B00000236CE904239AF80020022A03D0042A70
:1052C00001D0082A07D160460AF10801CDF808C0CC
:1052D000FFF7D2FB0AE00823BAF902000721009386
:1052E00000226346CDF808C0FEF7A6FBDDE90423E3
:1052F00028696969DDF808C0994208BF904204D165
:10530000637843F03003637026E0404603996246B9
:10531000FFF7F2FB0028F3D12B69A0191BBAFF2B72
:1053200063780FD1AA8A52BA92B2B2F57E4F09D1F0
:1053300043F02003637005F11601022203F033F9F4
:10534000023608E043F01003637005F110010822F3
:1053500003F029F90836B6B22B7EFF2B76D163789D
:1053600043F0080262706A8B002A3CD1EA69002A85
:1053700039D12A8CBABB6A7E022A0FD12A6A6AB94D
:10538000AA8C5AB995F8262042B943F00B036370F2
:1053900095F82720731CA2559EB2BBE06A8C8AB98F
:1053A00095F8242072B943F00A0363706B7E701C79
:1053B00080B2A355204405F12501032203F0F3F840
:1053C0000436A6E095F82220002A40F09B8043F0A6
:1053D000090363706B7E701C80B2A355204405F1F5
:1053E000230105222EE0AB8B04A8ADF81030EB8B27
:1053F000ADF812302B8CADF814306B8CADF8163044
:10540000FEF780FF00287DD0437CDA067AD5027C47
:10541000EB7E9A4276D1637843F004036370437C59
:1054200013F00F0302D0A2781343A3706B7EB01C5D
:10543000A355AA7E731C9BB280B2E254204405F1AE
:105440002401042203F0AFF8063662E017B17B7C3A
:10545000DB0609D4EB69AA6918BA4E4B11BA0022CF
:10546000994208BF90424DD19AF80130002B49D0A3
:1054700057B1637843F0040363707B7C13F00F0330
:1054800002D0A2781343A3709AF800109AF8012072
:105490000831514404A8FFF7EFFADDE90423286A34
:1054A000696A994208BF904204D1637843F00303CC
:1054B00063702FE0384605F1180104AAFFF71CFBC2
:1054C0000028F2D12B6AA0191BBAFF2B63780FD1E9
:1054D000AA8C52BA92B2B2F57E4F09D143F00203C0
:1054E000637005F12601022203F05DF8023610E038
:1054F00043F00103637005F12001082203F053F823
:10550000083606E0A01905F11801102203F04BF847
:105510001036B6B258463146FEF7FAFCD9F8040008
:10552000814508D04B465A682AB1824201D01346C1
:10553000F9E742685A6000234360FEF737FDD9F867
:1055400004300120CBF80430C9F804B01FE01EE09D
:1055500018BA104B11BA0022994208BF90420BD0E2
:105560002B7AFF2B06D16B7A03F00F03981E434270
:10557000434102E0434600E00123D9073FF595AEE1
:10558000A0190399102203F00EF81036E3E609B0D3
:10559000BDE8F08F000080FEF0B500F5D87585B04D
:1055A00006460F46284602AC01F08AFD20463946E1
:1055B000002201F044FD074B4FF40872B3F90030AC
:1055C0008DE84400284694E8060001F05BFD05B034
:1055D000F0BD00BF0427002070B500F5C476044676
:1055E00000253046FBF75EF820460A2184F89751E3
:1055F000FFF7D2FF3046FBF781F8B4F99001294656
:10560000BDE87040FDF7FCBE70B500F5C4750446FA
:105610002846FBF747F894F89731022B03D801335B
:1056200084F8973116E0DE1E01F0FCFC0123B34044
:10563000B0FBF3F13B2B01FB130004D894F8973136
:10564000013384F89731092804D93C2834BF014636
:105650003C2100E00A212046FFF79EFF2846FBF789
:105660004DF8B4F990010021BDE87040FDF7C8BEC7
:1056700010B5437E04461B070ED50268436852EA04
:10568000030107D1C368826852EA030114BF0023F3
:10569000012300E000235BB10020FCF7F7FA70B9AA
:1056A000B4F91A00FCF792FCBDE81040FFF794BF74
:1056B000B4F91A002146BDE81040FDF7A1BE10BDA7
:1056C0002DE9F04F85B0019181461946104690466C
:1056D0009B46FCF769FA824680B1B0F91A00FCF7E4
:1056E00075FCB0F89231D80705D59AF8193003F057
:1056F0003003302B02D1BBF1000F2ED1DBF800407C
:10570000DBF8045055492ABA23BA00208B4208BF5F
:1057100082420BD09BF80030FF2B09D19BF801305F
:1057200003F00F03991E4B424B4102E0012300E0BE
:10573000002343B9FDF7EAFC0446BAF1000F06D096
:10574000584504D109E0BAF1000F06D15C46404645
:105750002146FCF729FAA3468246DBF80040DBF835
:1057600004503E4B2EBA27BA00229F4208BF9642F1
:105770000BD09BF80030FF2B09D19BF8013003F0D0
:105780000F039A1E5342534102E0012300E000231D
:105790009BB3BAF1000F05D09AF8193003F030032B
:1057A000202B2DD103AC2046FEF78AF9019B08225D
:1057B0001A7005460BEB0201484602F0F4FE99F818
:1057C000003083F0020389F80030B8F1000F27D1D0
:1057D000A84523D034F918004FEA4806FCF7F6FB39
:1057E00040B1B0F89231DB0704D504A8064436F87E
:1057F000048C15E008F10108EAE7BAF1000F07D0C0
:105800009AF8193003F00702013A012A02D805E09C
:10581000D04605E003F03003202B06D14FF00008FE
:105820000FFA88F005B0BDE8F08F9AF8182022B181
:1058300048460AF1100102F0B6FE9AF818300199B4
:105840000B709AF8193003F00703032B03D150466D
:105850000421FDF773FDBAF81A80E1E7000080FE2D
:10586000F0B5B0F91A0085B00F46FCF7AFFB00F5B4
:10587000D875064602AC284601F022FC204639467F
:10588000002201F0DCFB074B4FF40872B3F9003043
:105890008DE84400284694E8060001F0F3FB05B0CB
:1058A000F0BD00BF04270020F8B507460E46154698
:1058B000212010211A46FDF7DCFA044668B18368FE
:1058C00076BA002058711871D8709F70DE8003F18D
:1058D00008002946082202F066FE2046F8BD0000B6
:1058E0002DE9F04F87B0109E804677780C46022F46
:1058F0009246994640F0D580082300930321002268
:105900006B44FEF799F80028C0F2CB804046FCF7C4
:105910005DFB494605464046FCF746F9BAF1870F5C
:10592000814651D0BAF1880F40F0BB80B5F8923172
:10593000D80740F1B680DDE90223D6F808A0D6F8F2
:105940000CB05B4508BF524540F0AB80B9F1000F89
:1059500000F0A780B378012B30D00BD3022B40F09E
:10596000A080404604F10801FCF758F92846FFF7EB
:1059700033FE96E005F5C4752846FAF793FEF388E2
:105980003C225BBA9BB2013B534309F138040493B8
:1059900020460023059301F093FB454B40F2122271
:1059A000B3F900308DE80402204606AC14E9060085
:1059B00001F068FB2846FAF7A1FE72E0404604F1C8
:1059C0001801FCF74BFB6CE0B5F89231990768D0F1
:1059D000B178002965D1A268E36852EA030007D1D3
:1059E0006369226952EA030114BF0023012300E026
:1059F0000B46DA0755D404F10801B9F1000F17D0AE
:105A000099F819309B060CD5D9F8A820D9F8AC30F4
:105A100052EA030405D0B468F5689D4208BF944279
:105A200041D1F58825B94046FCF7F8F82F463BE010
:105A3000F388002B35D0B9F1000F0FD10323009369
:105A40004046119A129BFCF725F8814660B3324616
:105A500000F1A80352F8080F516803C399F81930F0
:105A600009F18C0523F0300343F0300389F8193035
:105A7000F688284676BA01F023FB04ACB6B23C2186
:105A800020467143002201F0DAFA094B4FF4097203
:105A9000B3F900308DE80402284694E8060001F0CE
:105AA000F1FA002700E00127384607B0BDE8F08F83
:105AB0000427002013B58A784B78402A01D8022B9E
:105AC00000E0032B0ED186280ED1C878CB88C0F316
:105AD00000145BBA009408319BB200F00F00FEF78F
